{
  "_format": "hh-sol-artifact-1",
  "contractName": "customToken",
  "sourceName": "contracts/customToken.sol",
  "abi": [
    {
      "inputs": [
        {
          "internalType": "uint256",
          "name": "_initialSupply",
          "type": "uint256"
        }
      ],
      "stateMutability": "nonpayable",
      "type": "constructor"
    },
    {
      "anonymous": false,
      "inputs": [
        {
          "indexed": true,
          "internalType": "address",
          "name": "owner",
          "type": "address"
        },
        {
          "indexed": true,
          "internalType": "address",
          "name": "spender",
          "type": "address"
        },
        {
          "indexed": false,
          "internalType": "uint256",
          "name": "value",
          "type": "uint256"
        }
      ],
      "name": "Approval",
      "type": "event"
    },
    {
      "anonymous": false,
      "inputs": [
        {
          "indexed": true,
          "internalType": "address",
          "name": "from",
          "type": "address"
        },
        {
          "indexed": true,
          "internalType": "address",
          "name": "to",
          "type": "address"
        },
        {
          "indexed": false,
          "internalType": "uint256",
          "name": "value",
          "type": "uint256"
        }
      ],
      "name": "Transfer",
      "type": "event"
    },
    {
      "inputs": [
        {
          "internalType": "address",
          "name": "owner",
          "type": "address"
        },
        {
          "internalType": "address",
          "name": "spender",
          "type": "address"
        }
      ],
      "name": "allowance",
      "outputs": [
        {
          "internalType": "uint256",
          "name": "",
          "type": "uint256"
        }
      ],
      "stateMutability": "view",
      "type": "function"
    },
    {
      "inputs": [
        {
          "internalType": "address",
          "name": "spender",
          "type": "address"
        },
        {
          "internalType": "uint256",
          "name": "amount",
          "type": "uint256"
        }
      ],
      "name": "approve",
      "outputs": [
        {
          "internalType": "bool",
          "name": "",
          "type": "bool"
        }
      ],
      "stateMutability": "nonpayable",
      "type": "function"
    },
    {
      "inputs": [
        {
          "internalType": "address",
          "name": "_owner",
          "type": "address"
        },
        {
          "internalType": "address",
          "name": "_spender",
          "type": "address"
        },
        {
          "internalType": "uint256",
          "name": "_amount",
          "type": "uint256"
        }
      ],
      "name": "approve",
      "outputs": [],
      "stateMutability": "nonpayable",
      "type": "function"
    },
    {
      "inputs": [
        {
          "internalType": "address",
          "name": "account",
          "type": "address"
        }
      ],
      "name": "balanceOf",
      "outputs": [
        {
          "internalType": "uint256",
          "name": "",
          "type": "uint256"
        }
      ],
      "stateMutability": "view",
      "type": "function"
    },
    {
      "inputs": [
        {
          "internalType": "uint256",
          "name": "_numberOfTokens",
          "type": "uint256"
        }
      ],
      "name": "buyTokens",
      "outputs": [],
      "stateMutability": "payable",
      "type": "function"
    },
    {
      "inputs": [],
      "name": "claimRewards",
      "outputs": [],
      "stateMutability": "payable",
      "type": "function"
    },
    {
      "inputs": [],
      "name": "decimals",
      "outputs": [
        {
          "internalType": "uint8",
          "name": "",
          "type": "uint8"
        }
      ],
      "stateMutability": "pure",
      "type": "function"
    },
    {
      "inputs": [
        {
          "internalType": "address",
          "name": "spender",
          "type": "address"
        },
        {
          "internalType": "uint256",
          "name": "subtractedValue",
          "type": "uint256"
        }
      ],
      "name": "decreaseAllowance",
      "outputs": [
        {
          "internalType": "bool",
          "name": "",
          "type": "bool"
        }
      ],
      "stateMutability": "nonpayable",
      "type": "function"
    },
    {
      "inputs": [
        {
          "internalType": "address",
          "name": "expert",
          "type": "address"
        },
        {
          "internalType": "address",
          "name": "user",
          "type": "address"
        }
      ],
      "name": "expertFees",
      "outputs": [],
      "stateMutability": "payable",
      "type": "function"
    },
    {
      "inputs": [],
      "name": "getOwner",
      "outputs": [
        {
          "internalType": "address",
          "name": "",
          "type": "address"
        }
      ],
      "stateMutability": "view",
      "type": "function"
    },
    {
      "inputs": [],
      "name": "getTokenPrice",
      "outputs": [
        {
          "internalType": "uint256",
          "name": "",
          "type": "uint256"
        }
      ],
      "stateMutability": "view",
      "type": "function"
    },
    {
      "inputs": [],
      "name": "getTotalSupply",
      "outputs": [
        {
          "internalType": "uint256",
          "name": "",
          "type": "uint256"
        }
      ],
      "stateMutability": "view",
      "type": "function"
    },
    {
      "inputs": [
        {
          "internalType": "address",
          "name": "spender",
          "type": "address"
        },
        {
          "internalType": "uint256",
          "name": "addedValue",
          "type": "uint256"
        }
      ],
      "name": "increaseAllowance",
      "outputs": [
        {
          "internalType": "bool",
          "name": "",
          "type": "bool"
        }
      ],
      "stateMutability": "nonpayable",
      "type": "function"
    },
    {
      "inputs": [],
      "name": "name",
      "outputs": [
        {
          "internalType": "string",
          "name": "",
          "type": "string"
        }
      ],
      "stateMutability": "view",
      "type": "function"
    },
    {
      "inputs": [
        {
          "internalType": "uint256",
          "name": "articleid",
          "type": "uint256"
        },
        {
          "internalType": "uint256",
          "name": "amount",
          "type": "uint256"
        }
      ],
      "name": "sendTip",
      "outputs": [],
      "stateMutability": "payable",
      "type": "function"
    },
    {
      "inputs": [],
      "name": "symbol",
      "outputs": [
        {
          "internalType": "string",
          "name": "",
          "type": "string"
        }
      ],
      "stateMutability": "view",
      "type": "function"
    },
    {
      "inputs": [],
      "name": "totalSupply",
      "outputs": [
        {
          "internalType": "uint256",
          "name": "",
          "type": "uint256"
        }
      ],
      "stateMutability": "view",
      "type": "function"
    },
    {
      "inputs": [
        {
          "internalType": "address",
          "name": "to",
          "type": "address"
        },
        {
          "internalType": "uint256",
          "name": "amount",
          "type": "uint256"
        }
      ],
      "name": "transfer",
      "outputs": [
        {
          "internalType": "bool",
          "name": "",
          "type": "bool"
        }
      ],
      "stateMutability": "nonpayable",
      "type": "function"
    },
    {
      "inputs": [
        {
          "internalType": "address",
          "name": "from",
          "type": "address"
        },
        {
          "internalType": "address",
          "name": "to",
          "type": "address"
        },
        {
          "internalType": "uint256",
          "name": "amount",
          "type": "uint256"
        }
      ],
      "name": "transferFrom",
      "outputs": [
        {
          "internalType": "bool",
          "name": "",
          "type": "bool"
        }
      ],
      "stateMutability": "nonpayable",
      "type": "function"
    },
    {
      "inputs": [
        {
          "internalType": "address",
          "name": "_sender",
          "type": "address"
        },
        {
          "internalType": "address",
          "name": "_recipient",
          "type": "address"
        },
        {
          "internalType": "uint256",
          "name": "_amount",
          "type": "uint256"
        }
      ],
      "name": "transferr",
      "outputs": [
        {
          "internalType": "bool",
          "name": "",
          "type": "bool"
        }
      ],
      "stateMutability": "nonpayable",
      "type": "function"
    }
  ],
  "bytecode": "0x60806040526509184e72a000600755612710600855736cc1a5f4c7187e5c6d52fb6c51fce68f52e7d8f8600a60006101000a81548173ffffffffffffffffffffffffffffffffffffffff021916908373ffffffffffffffffffffffffffffffffffffffff1602179055503480156200007657600080fd5b50604051620028fe380380620028fe83398181016040528101906200009c919062000409565b6040518060400160405280600e81526020017f41534b325745423320546f6b656e0000000000000000000000000000000000008152506040518060400160405280600381526020017f41534b000000000000000000000000000000000000000000000000000000000081525081600390805190602001906200012092919062000342565b5080600490805190602001906200013992919062000342565b50505033600560006101000a81548173ffffffffffffffffffffffffffffffffffffffff021916908373ffffffffffffffffffffffffffffffffffffffff160217905550620001b1600560009054906101000a900473ffffffffffffffffffffffffffffffffffffffff1682620001bf60201b60201c565b8060068190555050620005fb565b600073ffffffffffffffffffffffffffffffffffffffff168273ffffffffffffffffffffffffffffffffffffffff16141562000232576040517f08c379a000000000000000000000000000000000000000000000000000000000815260040162000229906200046d565b60405180910390fd5b62000246600083836200033860201b60201c565b80600260008282546200025a9190620004bd565b92505081905550806000808473ffffffffffffffffffffffffffffffffffffffff1673ffffffffffffffffffffffffffffffffffffffff1681526020019081526020016000206000828254620002b19190620004bd565b925050819055508173ffffffffffffffffffffffffffffffffffffffff16600073ffffffffffffffffffffffffffffffffffffffff167fddf252ad1be2c89b69c2b068fc378daa952ba7f163c4a11628f55a4df523b3ef836040516200031891906200048f565b60405180910390a362000334600083836200033d60201b60201c565b5050565b505050565b505050565b828054620003509062000524565b90600052602060002090601f016020900481019282620003745760008555620003c0565b82601f106200038f57805160ff1916838001178555620003c0565b82800160010185558215620003c0579182015b82811115620003bf578251825591602001919060010190620003a2565b5b509050620003cf9190620003d3565b5090565b5b80821115620003ee576000816000905550600101620003d4565b5090565b6000815190506200040381620005e1565b92915050565b6000602082840312156200041c57600080fd5b60006200042c84828501620003f2565b91505092915050565b600062000444601f83620004ac565b91506200045182620005b8565b602082019050919050565b62000467816200051a565b82525050565b60006020820190508181036000830152620004888162000435565b9050919050565b6000602082019050620004a660008301846200045c565b92915050565b600082825260208201905092915050565b6000620004ca826200051a565b9150620004d7836200051a565b9250827fffffffffffffffffffffffffffffffffffffffffffffffffffffffffffffffff038211156200050f576200050e6200055a565b5b828201905092915050565b6000819050919050565b600060028204905060018216806200053d57607f821691505b6020821081141562000554576200055362000589565b5b50919050565b7f4e487b7100000000000000000000000000000000000000000000000000000000600052601160045260246000fd5b7f4e487b7100000000000000000000000000000000000000000000000000000000600052602260045260246000fd5b7f45524332303a206d696e7420746f20746865207a65726f206164647265737300600082015250565b620005ec816200051a565b8114620005f857600080fd5b50565b6122f3806200060b6000396000f3fe60806040526004361061011f5760003560e01c80635ca3484b116100a0578063a9059cbb11610064578063a9059cbb146103b5578063c4e41b22146103f2578063c88349141461041d578063dd62ed3e1461045a578063e1f21c67146104975761011f565b80635ca3484b146102c957806370a08231146102e5578063893d20e81461032257806395d89b411461034d578063a457c2d7146103785761011f565b8063313ce567116100e7578063313ce567146102105780633610724e1461023b578063372500ab1461025757806339509351146102615780634b94f50e1461029e5761011f565b8063017d939d1461012457806306fdde0314610140578063095ea7b31461016b57806318160ddd146101a857806323b872dd146101d3575b600080fd5b61013e600480360381019061013991906118a0565b6104c0565b005b34801561014c57600080fd5b506101556106d2565b6040516101629190611c27565b60405180910390f35b34801561017757600080fd5b50610192600480360381019061018d919061192b565b610764565b60405161019f9190611c0c565b60405180910390f35b3480156101b457600080fd5b506101bd610787565b6040516101ca9190611d89565b60405180910390f35b3480156101df57600080fd5b506101fa60048036038101906101f591906118dc565b610791565b6040516102079190611c0c565b60405180910390f35b34801561021c57600080fd5b506102256107c0565b6040516102329190611dcd565b60405180910390f35b61025560048036038101906102509190611967565b6107c5565b005b61025f6109f7565b005b34801561026d57600080fd5b506102886004803603810190610283919061192b565b610d1f565b6040516102959190611c0c565b60405180910390f35b3480156102aa57600080fd5b506102b3610d56565b6040516102c09190611d89565b60405180910390f35b6102e360048036038101906102de91906119b9565b610d60565b005b3480156102f157600080fd5b5061030c6004803603810190610307919061184e565b6110b9565b6040516103199190611d89565b60405180910390f35b34801561032e57600080fd5b50610337611101565b6040516103449190611bc8565b60405180910390f35b34801561035957600080fd5b5061036261112b565b60405161036f9190611c27565b60405180910390f35b34801561038457600080fd5b5061039f600480360381019061039a919061192b565b6111bd565b6040516103ac9190611c0c565b60405180910390f35b3480156103c157600080fd5b506103dc60048036038101906103d7919061192b565b611234565b6040516103e99190611c0c565b60405180910390f35b3480156103fe57600080fd5b50610407611257565b6040516104149190611d89565b60405180910390f35b34801561042957600080fd5b50610444600480360381019061043f91906118dc565b611261565b6040516104519190611c0c565b60405180910390f35b34801561046657600080fd5b50610481600480360381019061047c91906118a0565b611279565b60405161048e9190611d89565b60405180910390f35b3480156104a357600080fd5b506104be60048036038101906104b991906118dc565b611300565b005b6000600a60009054906101000a900473ffffffffffffffffffffffffffffffffffffffff1673ffffffffffffffffffffffffffffffffffffffff1663a1697ba6836040518263ffffffff1660e01b815260040161051d9190611bc8565b60206040518083038186803b15801561053557600080fd5b505afa158015610549573d6000803e3d6000fd5b505050506040513d601f19601f8201168201806040525081019061056d9190611990565b905061057a828483611261565b156106cd576000600a60009054906101000a900473ffffffffffffffffffffffffffffffffffffffff1673ffffffffffffffffffffffffffffffffffffffff1663974871c4846040518263ffffffff1660e01b81526004016105dc9190611bc8565b60206040518083038186803b1580156105f457600080fd5b505afa158015610608573d6000803e3d6000fd5b505050506040513d601f19601f8201168201806040525081019061062c9190611990565b9050818161063a9190611e04565b9050600a60009054906101000a900473ffffffffffffffffffffffffffffffffffffffff1673ffffffffffffffffffffffffffffffffffffffff1663bb70cb0d84836040518363ffffffff1660e01b8152600401610699929190611be3565b600060405180830381600087803b1580156106b357600080fd5b505af11580156106c7573d6000803e3d6000fd5b50505050505b505050565b6060600380546106e190611f70565b80601f016020809104026020016040519081016040528092919081815260200182805461070d90611f70565b801561075a5780601f1061072f5761010080835404028352916020019161075a565b820191906000526020600020905b81548152906001019060200180831161073d57829003601f168201915b5050505050905090565b60008061076f611310565b905061077c818585611318565b600191505092915050565b6000600254905090565b60008061079c611310565b90506107a98582856114e3565b6107b485858561156f565b60019150509392505050565b600090565b6107cd610d56565b816107d89190611e5a565b3414610819576040517f08c379a000000000000000000000000000000000000000000000000000000000815260040161081090611d49565b60405180910390fd5b80610845600560009054906101000a900473ffffffffffffffffffffffffffffffffffffffff166110b9565b1015610886576040517f08c379a000000000000000000000000000000000000000000000000000000000815260040161087d90611c89565b60405180910390fd5b6108b3600560009054906101000a900473ffffffffffffffffffffffffffffffffffffffff163383611261565b506000600a60009054906101000a900473ffffffffffffffffffffffffffffffffffffffff1673ffffffffffffffffffffffffffffffffffffffff1663ee7c0db06040518163ffffffff1660e01b815260040160206040518083038186803b15801561091e57600080fd5b505afa158015610932573d6000803e3d6000fd5b505050506040513d601f19601f820116820180604052508101906109569190611990565b905081816109649190611e04565b9050600a60009054906101000a900473ffffffffffffffffffffffffffffffffffffffff1673ffffffffffffffffffffffffffffffffffffffff16637efe7939826040518263ffffffff1660e01b81526004016109c19190611d89565b600060405180830381600087803b1580156109db57600080fd5b505af11580156109ef573d6000803e3d6000fd5b505050505050565b60003390506000600a60009054906101000a900473ffffffffffffffffffffffffffffffffffffffff1673ffffffffffffffffffffffffffffffffffffffff1663d283b3c5836040518263ffffffff1660e01b8152600401610a599190611bc8565b60206040518083038186803b158015610a7157600080fd5b505afa158015610a85573d6000803e3d6000fd5b505050506040513d601f19601f82011682018060405250810190610aa99190611990565b90506000600a60009054906101000a900473ffffffffffffffffffffffffffffffffffffffff1673ffffffffffffffffffffffffffffffffffffffff166395a7c4b2846040518263ffffffff1660e01b8152600401610b089190611bc8565b60206040518083038186803b158015610b2057600080fd5b505afa158015610b34573d6000803e3d6000fd5b505050506040513d601f19601f82011682018060405250810190610b589190611990565b9050600854821015610b9f576040517f08c379a0000000000000000000000000000000000000000000000000000000008152600401610b9690611ce9565b60405180910390fd5b6000821115610d1a57610bd6600560009054906101000a900473ffffffffffffffffffffffffffffffffffffffff16846064611261565b15610d195760085482610be99190611eb4565b9150600a60009054906101000a900473ffffffffffffffffffffffffffffffffffffffff1673ffffffffffffffffffffffffffffffffffffffff1663e9bf0fad84846040518363ffffffff1660e01b8152600401610c48929190611be3565b600060405180830381600087803b158015610c6257600080fd5b505af1158015610c76573d6000803e3d6000fd5b50505050606481610c879190611e04565b9050600a60009054906101000a900473ffffffffffffffffffffffffffffffffffffffff1673ffffffffffffffffffffffffffffffffffffffff1663ca6205ad84836040518363ffffffff1660e01b8152600401610ce6929190611be3565b600060405180830381600087803b158015610d0057600080fd5b505af1158015610d14573d6000803e3d6000fd5b505050505b5b505050565b600080610d2a611310565b9050610d4b818585610d3c8589611279565b610d469190611e04565b611318565b600191505092915050565b6000600754905090565b6000600a60009054906101000a900473ffffffffffffffffffffffffffffffffffffffff1673ffffffffffffffffffffffffffffffffffffffff1663e6bb0c39846040518263ffffffff1660e01b8152600401610dbd9190611d89565b60206040518083038186803b158015610dd557600080fd5b505afa158015610de9573d6000803e3d6000fd5b505050506040513d601f19601f82011682018060405250810190610e0d9190611877565b90506000600a60009054906101000a900473ffffffffffffffffffffffffffffffffffffffff1673ffffffffffffffffffffffffffffffffffffffff1663d075d4a6856040518263ffffffff1660e01b8152600401610e6c9190611d89565b60206040518083038186803b158015610e8457600080fd5b505afa158015610e98573d6000803e3d6000fd5b505050506040513d601f19601f82011682018060405250810190610ebc9190611990565b90508281610eca9190611e04565b9050600a60009054906101000a900473ffffffffffffffffffffffffffffffffffffffff1673ffffffffffffffffffffffffffffffffffffffff1663ce9e793b85836040518363ffffffff1660e01b8152600401610f29929190611da4565b600060405180830381600087803b158015610f4357600080fd5b505af1158015610f57573d6000803e3d6000fd5b505050506000600a60009054906101000a900473ffffffffffffffffffffffffffffffffffffffff1673ffffffffffffffffffffffffffffffffffffffff16633e8f032d846040518263ffffffff1660e01b8152600401610fb89190611bc8565b60206040518083038186803b158015610fd057600080fd5b505afa158015610fe4573d6000803e3d6000fd5b505050506040513d601f19601f820116820180604052508101906110089190611990565b905083816110169190611e04565b9050600a60009054906101000a900473ffffffffffffffffffffffffffffffffffffffff1673ffffffffffffffffffffffffffffffffffffffff1663f989128c84836040518363ffffffff1660e01b8152600401611075929190611be3565b600060405180830381600087803b15801561108f57600080fd5b505af11580156110a3573d6000803e3d6000fd5b505050506110b18385611234565b505050505050565b60008060008373ffffffffffffffffffffffffffffffffffffffff1673ffffffffffffffffffffffffffffffffffffffff168152602001908152602001600020549050919050565b6000600560009054906101000a900473ffffffffffffffffffffffffffffffffffffffff16905090565b60606004805461113a90611f70565b80601f016020809104026020016040519081016040528092919081815260200182805461116690611f70565b80156111b35780601f10611188576101008083540402835291602001916111b3565b820191906000526020600020905b81548152906001019060200180831161119657829003601f168201915b5050505050905090565b6000806111c8611310565b905060006111d68286611279565b90508381101561121b576040517f08c379a000000000000000000000000000000000000000000000000000000000815260040161121290611d69565b60405180910390fd5b6112288286868403611318565b60019250505092915050565b60008061123f611310565b905061124c81858561156f565b600191505092915050565b6000600654905090565b600061126e84848461156f565b600190509392505050565b6000600160008473ffffffffffffffffffffffffffffffffffffffff1673ffffffffffffffffffffffffffffffffffffffff16815260200190815260200160002060008373ffffffffffffffffffffffffffffffffffffffff1673ffffffffffffffffffffffffffffffffffffffff16815260200190815260200160002054905092915050565b61130b838383611318565b505050565b600033905090565b600073ffffffffffffffffffffffffffffffffffffffff168373ffffffffffffffffffffffffffffffffffffffff161415611388576040517f08c379a000000000000000000000000000000000000000000000000000000000815260040161137f90611d29565b60405180910390fd5b600073ffffffffffffffffffffffffffffffffffffffff168273ffffffffffffffffffffffffffffffffffffffff1614156113f8576040517f08c379a00000000000000000000000000000000000000000000000000000000081526004016113ef90611c69565b60405180910390fd5b80600160008573ffffffffffffffffffffffffffffffffffffffff1673ffffffffffffffffffffffffffffffffffffffff16815260200190815260200160002060008473ffffffffffffffffffffffffffffffffffffffff1673ffffffffffffffffffffffffffffffffffffffff168152602001908152602001600020819055508173ffffffffffffffffffffffffffffffffffffffff168373ffffffffffffffffffffffffffffffffffffffff167f8c5be1e5ebec7d5bd14f71427d1e84f3dd0314c0f7b2291e5b200ac8c7c3b925836040516114d69190611d89565b60405180910390a3505050565b60006114ef8484611279565b90507fffffffffffffffffffffffffffffffffffffffffffffffffffffffffffffffff8114611569578181101561155b576040517f08c379a000000000000000000000000000000000000000000000000000000000815260040161155290611ca9565b60405180910390fd5b6115688484848403611318565b5b50505050565b600073ffffffffffffffffffffffffffffffffffffffff168373ffffffffffffffffffffffffffffffffffffffff1614156115df576040517f08c379a00000000000000000000000000000000000000000000000000000000081526004016115d690611d09565b60405180910390fd5b600073ffffffffffffffffffffffffffffffffffffffff168273ffffffffffffffffffffffffffffffffffffffff16141561164f576040517f08c379a000000000000000000000000000000000000000000000000000000000815260040161164690611c49565b60405180910390fd5b61165a8383836117f0565b60008060008573ffffffffffffffffffffffffffffffffffffffff1673ffffffffffffffffffffffffffffffffffffffff168152602001908152602001600020549050818110156116e0576040517f08c379a00000000000000000000000000000000000000000000000000000000081526004016116d790611cc9565b60405180910390fd5b8181036000808673ffffffffffffffffffffffffffffffffffffffff1673ffffffffffffffffffffffffffffffffffffffff16815260200190815260200160002081905550816000808573ffffffffffffffffffffffffffffffffffffffff1673ffffffffffffffffffffffffffffffffffffffff16815260200190815260200160002060008282546117739190611e04565b925050819055508273ffffffffffffffffffffffffffffffffffffffff168473ffffffffffffffffffffffffffffffffffffffff167fddf252ad1be2c89b69c2b068fc378daa952ba7f163c4a11628f55a4df523b3ef846040516117d79190611d89565b60405180910390a36117ea8484846117f5565b50505050565b505050565b505050565b6000813590506118098161228f565b92915050565b60008151905061181e8161228f565b92915050565b600081359050611833816122a6565b92915050565b600081519050611848816122a6565b92915050565b60006020828403121561186057600080fd5b600061186e848285016117fa565b91505092915050565b60006020828403121561188957600080fd5b60006118978482850161180f565b91505092915050565b600080604083850312156118b357600080fd5b60006118c1858286016117fa565b92505060206118d2858286016117fa565b9150509250929050565b6000806000606084860312156118f157600080fd5b60006118ff868287016117fa565b9350506020611910868287016117fa565b925050604061192186828701611824565b9150509250925092565b6000806040838503121561193e57600080fd5b600061194c858286016117fa565b925050602061195d85828601611824565b9150509250929050565b60006020828403121561197957600080fd5b600061198784828501611824565b91505092915050565b6000602082840312156119a257600080fd5b60006119b084828501611839565b91505092915050565b600080604083850312156119cc57600080fd5b60006119da85828601611824565b92505060206119eb85828601611824565b9150509250929050565b6119fe81611ee8565b82525050565b611a0d81611efa565b82525050565b6000611a1e82611de8565b611a288185611df3565b9350611a38818560208601611f3d565b611a4181612000565b840191505092915050565b6000611a59602383611df3565b9150611a6482612011565b604082019050919050565b6000611a7c602283611df3565b9150611a8782612060565b604082019050919050565b6000611a9f601083611df3565b9150611aaa826120af565b602082019050919050565b6000611ac2601d83611df3565b9150611acd826120d8565b602082019050919050565b6000611ae5602683611df3565b9150611af082612101565b604082019050919050565b6000611b08601d83611df3565b9150611b1382612150565b602082019050919050565b6000611b2b602583611df3565b9150611b3682612179565b604082019050919050565b6000611b4e602483611df3565b9150611b59826121c8565b604082019050919050565b6000611b71601083611df3565b9150611b7c82612217565b602082019050919050565b6000611b94602583611df3565b9150611b9f82612240565b604082019050919050565b611bb381611f26565b82525050565b611bc281611f30565b82525050565b6000602082019050611bdd60008301846119f5565b92915050565b6000604082019050611bf860008301856119f5565b611c056020830184611baa565b9392505050565b6000602082019050611c216000830184611a04565b92915050565b60006020820190508181036000830152611c418184611a13565b905092915050565b60006020820190508181036000830152611c6281611a4c565b9050919050565b60006020820190508181036000830152611c8281611a6f565b9050919050565b60006020820190508181036000830152611ca281611a92565b9050919050565b60006020820190508181036000830152611cc281611ab5565b9050919050565b60006020820190508181036000830152611ce281611ad8565b9050919050565b60006020820190508181036000830152611d0281611afb565b9050919050565b60006020820190508181036000830152611d2281611b1e565b9050919050565b60006020820190508181036000830152611d4281611b41565b9050919050565b60006020820190508181036000830152611d6281611b64565b9050919050565b60006020820190508181036000830152611d8281611b87565b9050919050565b6000602082019050611d9e6000830184611baa565b92915050565b6000604082019050611db96000830185611baa565b611dc66020830184611baa565b9392505050565b6000602082019050611de26000830184611bb9565b92915050565b600081519050919050565b600082825260208201905092915050565b6000611e0f82611f26565b9150611e1a83611f26565b9250827fffffffffffffffffffffffffffffffffffffffffffffffffffffffffffffffff03821115611e4f57611e4e611fa2565b5b828201905092915050565b6000611e6582611f26565b9150611e7083611f26565b9250817fffffffffffffffffffffffffffffffffffffffffffffffffffffffffffffffff0483118215151615611ea957611ea8611fa2565b5b828202905092915050565b6000611ebf82611f26565b9150611eca83611f26565b925082821015611edd57611edc611fa2565b5b828203905092915050565b6000611ef382611f06565b9050919050565b60008115159050919050565b600073ffffffffffffffffffffffffffffffffffffffff82169050919050565b6000819050919050565b600060ff82169050919050565b60005b83811015611f5b578082015181840152602081019050611f40565b83811115611f6a576000848401525b50505050565b60006002820490506001821680611f8857607f821691505b60208210811415611f9c57611f9b611fd1565b5b50919050565b7f4e487b7100000000000000000000000000000000000000000000000000000000600052601160045260246000fd5b7f4e487b7100000000000000000000000000000000000000000000000000000000600052602260045260246000fd5b6000601f19601f8301169050919050565b7f45524332303a207472616e7366657220746f20746865207a65726f206164647260008201527f6573730000000000000000000000000000000000000000000000000000000000602082015250565b7f45524332303a20617070726f766520746f20746865207a65726f20616464726560008201527f7373000000000000000000000000000000000000000000000000000000000000602082015250565b7f6e6f7420656e6f75676820746f6b656e00000000000000000000000000000000600082015250565b7f45524332303a20696e73756666696369656e7420616c6c6f77616e6365000000600082015250565b7f45524332303a207472616e7366657220616d6f756e742065786365656473206260008201527f616c616e63650000000000000000000000000000000000000000000000000000602082015250565b7f4e6f7420656c696769626c6520746f207769746864726177207965742e000000600082015250565b7f45524332303a207472616e736665722066726f6d20746865207a65726f20616460008201527f6472657373000000000000000000000000000000000000000000000000000000602082015250565b7f45524332303a20617070726f76652066726f6d20746865207a65726f2061646460008201527f7265737300000000000000000000000000000000000000000000000000000000602082015250565b7f6e6f7420656e6f7567682076616c756500000000000000000000000000000000600082015250565b7f45524332303a2064656372656173656420616c6c6f77616e63652062656c6f7760008201527f207a65726f000000000000000000000000000000000000000000000000000000602082015250565b61229881611ee8565b81146122a357600080fd5b50565b6122af81611f26565b81146122ba57600080fd5b5056fea26469706673582212202b1a14bdc5783fcc83264c1c68a32a51416f809cb656836478f1e3fc77f8e17864736f6c63430008040033",
  "linkReferences": {},
  "deployedLinkReferences": {}
}