{
  "_format": "hh-sol-artifact-1",
  "contractName": "Stack",
  "sourceName": "contracts/Stack.sol",
  "abi": [
    {
      "inputs": [],
      "stateMutability": "nonpayable",
      "type": "constructor"
    },
    {
      "inputs": [
        {
          "internalType": "uint256",
          "name": "aid",
          "type": "uint256"
        }
      ],
      "name": "a_downvote",
      "outputs": [],
      "stateMutability": "nonpayable",
      "type": "function"
    },
    {
      "inputs": [],
      "name": "a_id",
      "outputs": [
        {
          "internalType": "uint256",
          "name": "",
          "type": "uint256"
        }
      ],
      "stateMutability": "view",
      "type": "function"
    },
    {
      "inputs": [
        {
          "internalType": "uint256",
          "name": "aid",
          "type": "uint256"
        }
      ],
      "name": "a_upVote",
      "outputs": [],
      "stateMutability": "nonpayable",
      "type": "function"
    },
    {
      "inputs": [
        {
          "internalType": "uint256",
          "name": "qid",
          "type": "uint256"
        },
        {
          "internalType": "string",
          "name": "a_cid",
          "type": "string"
        }
      ],
      "name": "addAnswer",
      "outputs": [],
      "stateMutability": "nonpayable",
      "type": "function"
    },
    {
      "inputs": [
        {
          "internalType": "string",
          "name": "title",
          "type": "string"
        },
        {
          "internalType": "string",
          "name": "article_cid",
          "type": "string"
        },
        {
          "internalType": "string",
          "name": "image_cid",
          "type": "string"
        },
        {
          "internalType": "string[]",
          "name": "tag_name",
          "type": "string[]"
        }
      ],
      "name": "addArticle",
      "outputs": [],
      "stateMutability": "nonpayable",
      "type": "function"
    },
    {
      "inputs": [
        {
          "internalType": "uint256",
          "name": "articleid",
          "type": "uint256"
        }
      ],
      "name": "addLike",
      "outputs": [],
      "stateMutability": "nonpayable",
      "type": "function"
    },
    {
      "inputs": [
        {
          "internalType": "string",
          "name": "title",
          "type": "string"
        },
        {
          "internalType": "string",
          "name": "q_cid",
          "type": "string"
        },
        {
          "internalType": "string[]",
          "name": "tag_name",
          "type": "string[]"
        }
      ],
      "name": "addQuestion",
      "outputs": [],
      "stateMutability": "nonpayable",
      "type": "function"
    },
    {
      "inputs": [
        {
          "internalType": "address",
          "name": "",
          "type": "address"
        },
        {
          "internalType": "string",
          "name": "",
          "type": "string"
        }
      ],
      "name": "addressToTagToScore",
      "outputs": [
        {
          "internalType": "uint256",
          "name": "",
          "type": "uint256"
        }
      ],
      "stateMutability": "view",
      "type": "function"
    },
    {
      "inputs": [
        {
          "internalType": "address",
          "name": "",
          "type": "address"
        }
      ],
      "name": "addressToUserInfo",
      "outputs": [
        {
          "internalType": "address",
          "name": "user",
          "type": "address"
        },
        {
          "internalType": "uint256",
          "name": "noOfQuestions",
          "type": "uint256"
        },
        {
          "internalType": "uint256",
          "name": "noOfAnswers",
          "type": "uint256"
        },
        {
          "internalType": "uint256",
          "name": "noOfArticles",
          "type": "uint256"
        },
        {
          "internalType": "uint256",
          "name": "totalScore",
          "type": "uint256"
        },
        {
          "internalType": "uint256",
          "name": "reputationScore",
          "type": "uint256"
        },
        {
          "internalType": "uint256",
          "name": "totalReward",
          "type": "uint256"
        },
        {
          "internalType": "uint256",
          "name": "totalRedeem",
          "type": "uint256"
        },
        {
          "internalType": "uint256",
          "name": "totalTip",
          "type": "uint256"
        },
        {
          "internalType": "uint256",
          "name": "expertFeesEarned",
          "type": "uint256"
        }
      ],
      "stateMutability": "view",
      "type": "function"
    },
    {
      "inputs": [
        {
          "internalType": "address",
          "name": "",
          "type": "address"
        }
      ],
      "name": "addressToUserProfileInfo",
      "outputs": [
        {
          "internalType": "address",
          "name": "user",
          "type": "address"
        },
        {
          "internalType": "string",
          "name": "name",
          "type": "string"
        },
        {
          "internalType": "string",
          "name": "userImageCID",
          "type": "string"
        },
        {
          "internalType": "string",
          "name": "email",
          "type": "string"
        },
        {
          "internalType": "string",
          "name": "designation",
          "type": "string"
        },
        {
          "internalType": "string",
          "name": "aboutUSer",
          "type": "string"
        },
        {
          "internalType": "uint256",
          "name": "expertFees",
          "type": "uint256"
        }
      ],
      "stateMutability": "view",
      "type": "function"
    },
    {
      "inputs": [
        {
          "internalType": "uint256",
          "name": "aid",
          "type": "uint256"
        }
      ],
      "name": "approve",
      "outputs": [],
      "stateMutability": "nonpayable",
      "type": "function"
    },
    {
      "inputs": [],
      "name": "article_id",
      "outputs": [
        {
          "internalType": "uint256",
          "name": "",
          "type": "uint256"
        }
      ],
      "stateMutability": "view",
      "type": "function"
    },
    {
      "inputs": [
        {
          "internalType": "string",
          "name": "name",
          "type": "string"
        },
        {
          "internalType": "string",
          "name": "cid",
          "type": "string"
        },
        {
          "internalType": "string",
          "name": "email",
          "type": "string"
        },
        {
          "internalType": "string",
          "name": "designation",
          "type": "string"
        },
        {
          "internalType": "string",
          "name": "aboutUser",
          "type": "string"
        },
        {
          "internalType": "uint256",
          "name": "fees",
          "type": "uint256"
        },
        {
          "internalType": "string[]",
          "name": "listOfTags",
          "type": "string[]"
        }
      ],
      "name": "createProfile",
      "outputs": [],
      "stateMutability": "nonpayable",
      "type": "function"
    },
    {
      "inputs": [],
      "name": "getAllUserAnswersId",
      "outputs": [
        {
          "internalType": "uint256[]",
          "name": "",
          "type": "uint256[]"
        }
      ],
      "stateMutability": "view",
      "type": "function"
    },
    {
      "inputs": [],
      "name": "getAllUserArticlesId",
      "outputs": [
        {
          "internalType": "uint256[]",
          "name": "",
          "type": "uint256[]"
        }
      ],
      "stateMutability": "view",
      "type": "function"
    },
    {
      "inputs": [],
      "name": "getAllUserQuestionsId",
      "outputs": [
        {
          "internalType": "uint256[]",
          "name": "",
          "type": "uint256[]"
        }
      ],
      "stateMutability": "view",
      "type": "function"
    },
    {
      "inputs": [],
      "name": "getAllUsers",
      "outputs": [
        {
          "internalType": "address[]",
          "name": "",
          "type": "address[]"
        }
      ],
      "stateMutability": "view",
      "type": "function"
    },
    {
      "inputs": [
        {
          "internalType": "uint256",
          "name": "aid",
          "type": "uint256"
        }
      ],
      "name": "getAnswer",
      "outputs": [
        {
          "components": [
            {
              "internalType": "uint256",
              "name": "a_id",
              "type": "uint256"
            },
            {
              "internalType": "address",
              "name": "user",
              "type": "address"
            },
            {
              "internalType": "string",
              "name": "a_cid",
              "type": "string"
            },
            {
              "internalType": "uint256",
              "name": "a_upvote",
              "type": "uint256"
            },
            {
              "internalType": "uint256",
              "name": "a_downvote",
              "type": "uint256"
            },
            {
              "internalType": "bool",
              "name": "isApproved",
              "type": "bool"
            }
          ],
          "internalType": "struct Stack.AnswerInfo",
          "name": "",
          "type": "tuple"
        }
      ],
      "stateMutability": "view",
      "type": "function"
    },
    {
      "inputs": [
        {
          "internalType": "uint256",
          "name": "articleid",
          "type": "uint256"
        }
      ],
      "name": "getArticle",
      "outputs": [
        {
          "components": [
            {
              "internalType": "uint256",
              "name": "article_id",
              "type": "uint256"
            },
            {
              "internalType": "address",
              "name": "user",
              "type": "address"
            },
            {
              "internalType": "string",
              "name": "article_title",
              "type": "string"
            },
            {
              "internalType": "string",
              "name": "article_cid",
              "type": "string"
            },
            {
              "internalType": "string",
              "name": "article_image_cid",
              "type": "string"
            },
            {
              "internalType": "uint256",
              "name": "noOfLikes",
              "type": "uint256"
            },
            {
              "internalType": "uint256",
              "name": "tip",
              "type": "uint256"
            }
          ],
          "internalType": "struct Stack.ArticleInfo",
          "name": "",
          "type": "tuple"
        }
      ],
      "stateMutability": "view",
      "type": "function"
    },
    {
      "inputs": [
        {
          "internalType": "address",
          "name": "user",
          "type": "address"
        }
      ],
      "name": "getExpertFees",
      "outputs": [
        {
          "internalType": "uint256",
          "name": "",
          "type": "uint256"
        }
      ],
      "stateMutability": "view",
      "type": "function"
    },
    {
      "inputs": [
        {
          "internalType": "address",
          "name": "user",
          "type": "address"
        }
      ],
      "name": "getExpertFeesEarned",
      "outputs": [
        {
          "internalType": "uint256",
          "name": "",
          "type": "uint256"
        }
      ],
      "stateMutability": "view",
      "type": "function"
    },
    {
      "inputs": [
        {
          "internalType": "uint256",
          "name": "qid",
          "type": "uint256"
        }
      ],
      "name": "getQuestion",
      "outputs": [
        {
          "components": [
            {
              "internalType": "uint256",
              "name": "q_id",
              "type": "uint256"
            },
            {
              "internalType": "address",
              "name": "user",
              "type": "address"
            },
            {
              "internalType": "string",
              "name": "q_title",
              "type": "string"
            },
            {
              "internalType": "string",
              "name": "q_cid",
              "type": "string"
            },
            {
              "internalType": "uint256",
              "name": "q_upvote",
              "type": "uint256"
            },
            {
              "internalType": "uint256",
              "name": "q_downvote",
              "type": "uint256"
            },
            {
              "internalType": "uint256[]",
              "name": "ans_id",
              "type": "uint256[]"
            },
            {
              "internalType": "string[]",
              "name": "q_taglist",
              "type": "string[]"
            }
          ],
          "internalType": "struct Stack.QuestionInfo",
          "name": "",
          "type": "tuple"
        }
      ],
      "stateMutability": "view",
      "type": "function"
    },
    {
      "inputs": [
        {
          "internalType": "uint256",
          "name": "articleid",
          "type": "uint256"
        }
      ],
      "name": "getTipFromArticleId",
      "outputs": [
        {
          "internalType": "uint256",
          "name": "",
          "type": "uint256"
        }
      ],
      "stateMutability": "view",
      "type": "function"
    },
    {
      "inputs": [],
      "name": "getTokensSold",
      "outputs": [
        {
          "internalType": "uint256",
          "name": "",
          "type": "uint256"
        }
      ],
      "stateMutability": "view",
      "type": "function"
    },
    {
      "inputs": [
        {
          "internalType": "address",
          "name": "user",
          "type": "address"
        }
      ],
      "name": "getTotalRedeem",
      "outputs": [
        {
          "internalType": "uint256",
          "name": "",
          "type": "uint256"
        }
      ],
      "stateMutability": "view",
      "type": "function"
    },
    {
      "inputs": [
        {
          "internalType": "address",
          "name": "user",
          "type": "address"
        }
      ],
      "name": "getTotalScore",
      "outputs": [
        {
          "internalType": "uint256",
          "name": "",
          "type": "uint256"
        }
      ],
      "stateMutability": "view",
      "type": "function"
    },
    {
      "inputs": [
        {
          "internalType": "address",
          "name": "user",
          "type": "address"
        }
      ],
      "name": "getUserCID",
      "outputs": [
        {
          "internalType": "string",
          "name": "",
          "type": "string"
        }
      ],
      "stateMutability": "view",
      "type": "function"
    },
    {
      "inputs": [
        {
          "internalType": "address",
          "name": "user",
          "type": "address"
        }
      ],
      "name": "getUserDescription",
      "outputs": [
        {
          "internalType": "string",
          "name": "",
          "type": "string"
        }
      ],
      "stateMutability": "view",
      "type": "function"
    },
    {
      "inputs": [
        {
          "internalType": "address",
          "name": "user",
          "type": "address"
        }
      ],
      "name": "getUserDesignation",
      "outputs": [
        {
          "internalType": "string",
          "name": "",
          "type": "string"
        }
      ],
      "stateMutability": "view",
      "type": "function"
    },
    {
      "inputs": [
        {
          "internalType": "address",
          "name": "user",
          "type": "address"
        }
      ],
      "name": "getUserEmail",
      "outputs": [
        {
          "internalType": "string",
          "name": "",
          "type": "string"
        }
      ],
      "stateMutability": "view",
      "type": "function"
    },
    {
      "inputs": [
        {
          "internalType": "uint256",
          "name": "articleid",
          "type": "uint256"
        }
      ],
      "name": "getUserFromArticleId",
      "outputs": [
        {
          "internalType": "address",
          "name": "",
          "type": "address"
        }
      ],
      "stateMutability": "view",
      "type": "function"
    },
    {
      "inputs": [
        {
          "internalType": "address",
          "name": "user",
          "type": "address"
        }
      ],
      "name": "getUserInfo",
      "outputs": [
        {
          "components": [
            {
              "internalType": "address",
              "name": "user",
              "type": "address"
            },
            {
              "internalType": "uint256",
              "name": "noOfQuestions",
              "type": "uint256"
            },
            {
              "internalType": "uint256",
              "name": "noOfAnswers",
              "type": "uint256"
            },
            {
              "internalType": "uint256",
              "name": "noOfArticles",
              "type": "uint256"
            },
            {
              "internalType": "uint256",
              "name": "totalScore",
              "type": "uint256"
            },
            {
              "internalType": "uint256",
              "name": "reputationScore",
              "type": "uint256"
            },
            {
              "internalType": "uint256",
              "name": "totalReward",
              "type": "uint256"
            },
            {
              "internalType": "uint256",
              "name": "totalRedeem",
              "type": "uint256"
            },
            {
              "internalType": "uint256",
              "name": "totalTip",
              "type": "uint256"
            },
            {
              "internalType": "uint256",
              "name": "expertFeesEarned",
              "type": "uint256"
            }
          ],
          "internalType": "struct Stack.UserInfo",
          "name": "",
          "type": "tuple"
        }
      ],
      "stateMutability": "view",
      "type": "function"
    },
    {
      "inputs": [
        {
          "internalType": "address",
          "name": "user",
          "type": "address"
        }
      ],
      "name": "getUserName",
      "outputs": [
        {
          "internalType": "string",
          "name": "",
          "type": "string"
        }
      ],
      "stateMutability": "view",
      "type": "function"
    },
    {
      "inputs": [],
      "name": "getUserTage",
      "outputs": [
        {
          "internalType": "string[]",
          "name": "",
          "type": "string[]"
        }
      ],
      "stateMutability": "view",
      "type": "function"
    },
    {
      "inputs": [
        {
          "internalType": "address",
          "name": "user",
          "type": "address"
        }
      ],
      "name": "getUserTags",
      "outputs": [
        {
          "internalType": "string[]",
          "name": "",
          "type": "string[]"
        }
      ],
      "stateMutability": "view",
      "type": "function"
    },
    {
      "inputs": [
        {
          "internalType": "address",
          "name": "user",
          "type": "address"
        }
      ],
      "name": "getUserTotalTip",
      "outputs": [
        {
          "internalType": "uint256",
          "name": "",
          "type": "uint256"
        }
      ],
      "stateMutability": "view",
      "type": "function"
    },
    {
      "inputs": [
        {
          "internalType": "uint256",
          "name": "",
          "type": "uint256"
        }
      ],
      "name": "idToAnswer",
      "outputs": [
        {
          "internalType": "uint256",
          "name": "a_id",
          "type": "uint256"
        },
        {
          "internalType": "address",
          "name": "user",
          "type": "address"
        },
        {
          "internalType": "string",
          "name": "a_cid",
          "type": "string"
        },
        {
          "internalType": "uint256",
          "name": "a_upvote",
          "type": "uint256"
        },
        {
          "internalType": "uint256",
          "name": "a_downvote",
          "type": "uint256"
        },
        {
          "internalType": "bool",
          "name": "isApproved",
          "type": "bool"
        }
      ],
      "stateMutability": "view",
      "type": "function"
    },
    {
      "inputs": [
        {
          "internalType": "uint256",
          "name": "",
          "type": "uint256"
        }
      ],
      "name": "idToArticle",
      "outputs": [
        {
          "internalType": "uint256",
          "name": "article_id",
          "type": "uint256"
        },
        {
          "internalType": "address",
          "name": "user",
          "type": "address"
        },
        {
          "internalType": "string",
          "name": "article_title",
          "type": "string"
        },
        {
          "internalType": "string",
          "name": "article_cid",
          "type": "string"
        },
        {
          "internalType": "string",
          "name": "article_image_cid",
          "type": "string"
        },
        {
          "internalType": "uint256",
          "name": "noOfLikes",
          "type": "uint256"
        },
        {
          "internalType": "uint256",
          "name": "tip",
          "type": "uint256"
        }
      ],
      "stateMutability": "view",
      "type": "function"
    },
    {
      "inputs": [
        {
          "internalType": "uint256",
          "name": "",
          "type": "uint256"
        }
      ],
      "name": "idToQuestion",
      "outputs": [
        {
          "internalType": "uint256",
          "name": "q_id",
          "type": "uint256"
        },
        {
          "internalType": "address",
          "name": "user",
          "type": "address"
        },
        {
          "internalType": "string",
          "name": "q_title",
          "type": "string"
        },
        {
          "internalType": "string",
          "name": "q_cid",
          "type": "string"
        },
        {
          "internalType": "uint256",
          "name": "q_upvote",
          "type": "uint256"
        },
        {
          "internalType": "uint256",
          "name": "q_downvote",
          "type": "uint256"
        }
      ],
      "stateMutability": "view",
      "type": "function"
    },
    {
      "inputs": [
        {
          "internalType": "uint256",
          "name": "qid",
          "type": "uint256"
        },
        {
          "internalType": "address",
          "name": "user",
          "type": "address"
        }
      ],
      "name": "isDownUpvotedAnswer",
      "outputs": [
        {
          "internalType": "bool",
          "name": "",
          "type": "bool"
        }
      ],
      "stateMutability": "view",
      "type": "function"
    },
    {
      "inputs": [
        {
          "internalType": "uint256",
          "name": "qid",
          "type": "uint256"
        },
        {
          "internalType": "address",
          "name": "user",
          "type": "address"
        }
      ],
      "name": "isDownUpvotedQuestion",
      "outputs": [
        {
          "internalType": "bool",
          "name": "",
          "type": "bool"
        }
      ],
      "stateMutability": "view",
      "type": "function"
    },
    {
      "inputs": [
        {
          "internalType": "uint256",
          "name": "",
          "type": "uint256"
        },
        {
          "internalType": "address",
          "name": "",
          "type": "address"
        }
      ],
      "name": "isDownVotedAnswer",
      "outputs": [
        {
          "internalType": "bool",
          "name": "",
          "type": "bool"
        }
      ],
      "stateMutability": "view",
      "type": "function"
    },
    {
      "inputs": [
        {
          "internalType": "uint256",
          "name": "",
          "type": "uint256"
        },
        {
          "internalType": "address",
          "name": "",
          "type": "address"
        }
      ],
      "name": "isDownVotedQuestion",
      "outputs": [
        {
          "internalType": "bool",
          "name": "",
          "type": "bool"
        }
      ],
      "stateMutability": "view",
      "type": "function"
    },
    {
      "inputs": [
        {
          "internalType": "uint256",
          "name": "",
          "type": "uint256"
        },
        {
          "internalType": "address",
          "name": "",
          "type": "address"
        }
      ],
      "name": "isUpVotedAnswer",
      "outputs": [
        {
          "internalType": "bool",
          "name": "",
          "type": "bool"
        }
      ],
      "stateMutability": "view",
      "type": "function"
    },
    {
      "inputs": [
        {
          "internalType": "uint256",
          "name": "",
          "type": "uint256"
        },
        {
          "internalType": "address",
          "name": "",
          "type": "address"
        }
      ],
      "name": "isUpVotedQuestion",
      "outputs": [
        {
          "internalType": "bool",
          "name": "",
          "type": "bool"
        }
      ],
      "stateMutability": "view",
      "type": "function"
    },
    {
      "inputs": [
        {
          "internalType": "uint256",
          "name": "qid",
          "type": "uint256"
        },
        {
          "internalType": "address",
          "name": "user",
          "type": "address"
        }
      ],
      "name": "isUserLikedArticle",
      "outputs": [
        {
          "internalType": "bool",
          "name": "",
          "type": "bool"
        }
      ],
      "stateMutability": "view",
      "type": "function"
    },
    {
      "inputs": [
        {
          "internalType": "uint256",
          "name": "",
          "type": "uint256"
        },
        {
          "internalType": "address",
          "name": "",
          "type": "address"
        }
      ],
      "name": "isUserLikedIt",
      "outputs": [
        {
          "internalType": "bool",
          "name": "",
          "type": "bool"
        }
      ],
      "stateMutability": "view",
      "type": "function"
    },
    {
      "inputs": [
        {
          "internalType": "uint256",
          "name": "qid",
          "type": "uint256"
        },
        {
          "internalType": "address",
          "name": "user",
          "type": "address"
        }
      ],
      "name": "isUserUpvotedAnswer",
      "outputs": [
        {
          "internalType": "bool",
          "name": "",
          "type": "bool"
        }
      ],
      "stateMutability": "view",
      "type": "function"
    },
    {
      "inputs": [
        {
          "internalType": "uint256",
          "name": "qid",
          "type": "uint256"
        },
        {
          "internalType": "address",
          "name": "user",
          "type": "address"
        }
      ],
      "name": "isUserUpvotedQuestion",
      "outputs": [
        {
          "internalType": "bool",
          "name": "",
          "type": "bool"
        }
      ],
      "stateMutability": "view",
      "type": "function"
    },
    {
      "inputs": [],
      "name": "owner",
      "outputs": [
        {
          "internalType": "address",
          "name": "",
          "type": "address"
        }
      ],
      "stateMutability": "view",
      "type": "function"
    },
    {
      "inputs": [
        {
          "internalType": "uint256",
          "name": "qid",
          "type": "uint256"
        }
      ],
      "name": "q_downvote",
      "outputs": [],
      "stateMutability": "nonpayable",
      "type": "function"
    },
    {
      "inputs": [],
      "name": "q_id",
      "outputs": [
        {
          "internalType": "uint256",
          "name": "",
          "type": "uint256"
        }
      ],
      "stateMutability": "view",
      "type": "function"
    },
    {
      "inputs": [
        {
          "internalType": "uint256",
          "name": "qid",
          "type": "uint256"
        }
      ],
      "name": "q_upVote",
      "outputs": [],
      "stateMutability": "nonpayable",
      "type": "function"
    },
    {
      "inputs": [
        {
          "internalType": "address",
          "name": "user",
          "type": "address"
        },
        {
          "internalType": "uint256",
          "name": "fee",
          "type": "uint256"
        }
      ],
      "name": "setExpertFeesEarned",
      "outputs": [],
      "stateMutability": "nonpayable",
      "type": "function"
    },
    {
      "inputs": [
        {
          "internalType": "uint256",
          "name": "articleid",
          "type": "uint256"
        },
        {
          "internalType": "uint256",
          "name": "tip",
          "type": "uint256"
        }
      ],
      "name": "setTipFromArticleId",
      "outputs": [],
      "stateMutability": "nonpayable",
      "type": "function"
    },
    {
      "inputs": [
        {
          "internalType": "uint256",
          "name": "tokei",
          "type": "uint256"
        }
      ],
      "name": "setTokenSold",
      "outputs": [],
      "stateMutability": "nonpayable",
      "type": "function"
    },
    {
      "inputs": [
        {
          "internalType": "address",
          "name": "user",
          "type": "address"
        },
        {
          "internalType": "uint256",
          "name": "redeem",
          "type": "uint256"
        }
      ],
      "name": "setTotalRedeem",
      "outputs": [],
      "stateMutability": "nonpayable",
      "type": "function"
    },
    {
      "inputs": [
        {
          "internalType": "address",
          "name": "user",
          "type": "address"
        },
        {
          "internalType": "uint256",
          "name": "score",
          "type": "uint256"
        }
      ],
      "name": "setTotalScore",
      "outputs": [],
      "stateMutability": "nonpayable",
      "type": "function"
    },
    {
      "inputs": [
        {
          "internalType": "address",
          "name": "user",
          "type": "address"
        },
        {
          "internalType": "uint256",
          "name": "totaltip",
          "type": "uint256"
        }
      ],
      "name": "setUserTotalTip",
      "outputs": [],
      "stateMutability": "nonpayable",
      "type": "function"
    },
    {
      "inputs": [],
      "name": "tokensSold",
      "outputs": [
        {
          "internalType": "uint256",
          "name": "",
          "type": "uint256"
        }
      ],
      "stateMutability": "view",
      "type": "function"
    },
    {
      "inputs": [
        {
          "internalType": "address",
          "name": "",
          "type": "address"
        },
        {
          "internalType": "uint256",
          "name": "",
          "type": "uint256"
        }
      ],
      "name": "userToAnswers",
      "outputs": [
        {
          "internalType": "uint256",
          "name": "",
          "type": "uint256"
        }
      ],
      "stateMutability": "view",
      "type": "function"
    },
    {
      "inputs": [
        {
          "internalType": "address",
          "name": "",
          "type": "address"
        },
        {
          "internalType": "uint256",
          "name": "",
          "type": "uint256"
        }
      ],
      "name": "userToArticle",
      "outputs": [
        {
          "internalType": "uint256",
          "name": "",
          "type": "uint256"
        }
      ],
      "stateMutability": "view",
      "type": "function"
    },
    {
      "inputs": [
        {
          "internalType": "address",
          "name": "",
          "type": "address"
        },
        {
          "internalType": "uint256",
          "name": "",
          "type": "uint256"
        }
      ],
      "name": "userToQuestions",
      "outputs": [
        {
          "internalType": "uint256",
          "name": "",
          "type": "uint256"
        }
      ],
      "stateMutability": "view",
      "type": "function"
    },
    {
      "inputs": [
        {
          "internalType": "uint256",
          "name": "",
          "type": "uint256"
        }
      ],
      "name": "users",
      "outputs": [
        {
          "internalType": "address",
          "name": "",
          "type": "address"
        }
      ],
      "stateMutability": "view",
      "type": "function"
    }
  ],
  "bytecode": "0x60806040526064601455600060155534801561001a57600080fd5b50336000806101000a81548173ffffffffffffffffffffffffffffffffffffffff021916908373ffffffffffffffffffffffffffffffffffffffff160217905550615f9b806200006b6000396000f3fe608060405234801561001057600080fd5b50600436106103cf5760003560e01c806395a7c4b2116101ff578063d075d4a61161011a578063e6df3381116100ad578063f4891ec41161007c578063f4891ec414610d55578063f824333a14610d85578063f989128c14610da1578063fad99ff014610dbd576103cf565b8063e6df338114610cb2578063e9513a6514610ceb578063e9bf0fad14610d1b578063ee7c0db014610d37576103cf565b8063db88176f116100e9578063db88176f14610c04578063e2842d7914610c34578063e4d7c83014610c52578063e6bb0c3914610c82576103cf565b8063d075d4a614610b58578063d14083fd14610b88578063d283b3c514610ba4578063d84f55ee14610bd4576103cf565b8063bb70cb0d11610192578063c51f4f4111610161578063c51f4f4114610ad2578063c757d53c14610b02578063ca6205ad14610b20578063ce9e793b14610b3c576103cf565b8063bb70cb0d14610a3a578063bc08bdfe14610a56578063bd85d86714610a86578063bf9d4cb214610ab6576103cf565b80639f9eeb68116101ce5780639f9eeb681461098e578063a1697ba6146109be578063b5ab58dc146109ee578063b759f95414610a1e576103cf565b806395a7c4b2146108e2578063974871c41461091257806399d4e3b5146109425780639b93f28d14610972576103cf565b806348500abc116102ef57806379589dad1161028257806382cb06ee1161025157806382cb06ee1461083457806386eeed0f146108645780638da5cb5b146108945780639480e948146108b2576103cf565b806379589dad146107915780637ca490dc146107c75780637efe7939146107fc57806380acf04f14610818576103cf565b80636386c1c7116102be5780636386c1c7146106e05780636e1467ed146107105780637491995a1461074557806377e997b914610761576103cf565b806348500abc1461063e57806349bcfaa914610674578063518ab2a8146106a4578063619d40c0146106c2576103cf565b8063213dcba211610367578063378a35cd11610336578063378a35cd146105925780633a21cfb5146105ae5780633e8f032d146105de5780633fcdbb831461060e576103cf565b8063213dcba2146104f65780632b35b5ae146105265780633393490714610544578063365b98b214610562576103cf565b80631967accc116103a35780631967accc146104705780631c14d7231461048c57806320405979146104a85780632101ca87146104d8576103cf565b8062f2efa0146103d457806301cb3e63146104045780630b43f7c514610422578063165acb5814610452575b600080fd5b6103ee60048036038101906103e99190614d18565b610ded565b6040516103fb91906158d9565b60405180910390f35b61040c610f08565b60405161041991906158fb565b60405180910390f35b61043c60048036038101906104379190614d41565b610f9d565b60405161044991906159dc565b60405180910390f35b61045a610fd8565b60405161046791906158fb565b60405180910390f35b61048a60048036038101906104859190615059565b61106d565b005b6104a660048036038101906104a19190614f2b565b6111b7565b005b6104c260048036038101906104bd9190614d95565b6116e9565b6040516104cf91906159dc565b60405180910390f35b6104e061171a565b6040516104ed91906159dc565b60405180910390f35b610510600480360381019061050b9190615082565b611720565b60405161051d919061591d565b60405180910390f35b61052e61174f565b60405161053b91906158fb565b60405180910390f35b61054c6117e4565b60405161055991906159dc565b60405180910390f35b61057c60048036038101906105779190615059565b6117ea565b604051610589919061576e565b60405180910390f35b6105ac60048036038101906105a79190615059565b611829565b005b6105c860048036038101906105c39190614d18565b611932565b6040516105d59190615938565b60405180910390f35b6105f860048036038101906105f39190614d18565b611a06565b60405161060591906159dc565b60405180910390f35b61062860048036038101906106239190615082565b611a52565b604051610635919061591d565b60405180910390f35b61065860048036038101906106539190615059565b611a81565b60405161066b97969594939291906159f7565b60405180910390f35b61068e60048036038101906106899190615082565b611c7b565b60405161069b919061591d565b60405180910390f35b6106ac611ce3565b6040516106b991906159dc565b60405180910390f35b6106ca611ce9565b6040516106d791906158d9565b60405180910390f35b6106fa60048036038101906106f59190614d18565b611e02565b60405161070791906159c0565b60405180910390f35b61072a60048036038101906107259190615059565b611f0c565b60405161073c96959493929190615aea565b60405180910390f35b61075f600480360381019061075a91906150be565b611ffd565b005b61077b60048036038101906107769190614d18565b6123aa565b6040516107889190615938565b60405180910390f35b6107ab60048036038101906107a69190614d18565b61247e565b6040516107be9796959493929190615789565b60405180910390f35b6107e160048036038101906107dc9190615059565b612788565b6040516107f396959493929190615a7b565b60405180910390f35b61081660048036038101906108119190615059565b6128f4565b005b610832600480360381019061082d9190615059565b6128fe565b005b61084e60048036038101906108499190615082565b612a48565b60405161085b919061591d565b60405180910390f35b61087e60048036038101906108799190614d95565b612ab0565b60405161088b91906159dc565b60405180910390f35b61089c612ae1565b6040516108a9919061576e565b60405180910390f35b6108cc60048036038101906108c79190614d18565b612b05565b6040516108d99190615938565b60405180910390f35b6108fc60048036038101906108f79190614d18565b612bd9565b60405161090991906159dc565b60405180910390f35b61092c60048036038101906109279190614d18565b612c25565b60405161093991906159dc565b60405180910390f35b61095c60048036038101906109579190615082565b612c71565b604051610969919061591d565b60405180910390f35b61098c60048036038101906109879190614dd1565b612ca0565b005b6109a860048036038101906109a39190615082565b613014565b6040516109b5919061591d565b60405180910390f35b6109d860048036038101906109d39190614d18565b613043565b6040516109e591906159dc565b60405180910390f35b610a086004803603810190610a039190615059565b61308f565b604051610a15919061595a565b60405180910390f35b610a386004803603810190610a339190615059565b6131dd565b005b610a546004803603810190610a4f9190614d95565b6132ff565b005b610a706004803603810190610a6b9190614d95565b61334a565b604051610a7d91906159dc565b60405180910390f35b610aa06004803603810190610a9b9190615059565b61337b565b604051610aad919061597c565b60405180910390f35b610ad06004803603810190610acb9190614e68565b6135d2565b005b610aec6004803603810190610ae79190615082565b613849565b604051610af9919061591d565b60405180910390f35b610b0a6138b1565b604051610b1791906159dc565b60405180910390f35b610b3a6004803603810190610b359190614d95565b6138b7565b005b610b566004803603810190610b519190615112565b613902565b005b610b726004803603810190610b6d9190615059565b613921565b604051610b7f91906159dc565b60405180910390f35b610ba26004803603810190610b9d9190615059565b613941565b005b610bbe6004803603810190610bb99190614d18565b613a8b565b604051610bcb91906159dc565b60405180910390f35b610bee6004803603810190610be99190614d18565b613ad7565b604051610bfb9190615938565b60405180910390f35b610c1e6004803603810190610c199190615059565b613bab565b604051610c2b919061599e565b60405180910390f35b610c3c613ea2565b604051610c4991906158b7565b60405180910390f35b610c6c6004803603810190610c679190614d18565b613f30565b604051610c799190615938565b60405180910390f35b610c9c6004803603810190610c979190615059565b614004565b604051610ca9919061576e565b60405180910390f35b610ccc6004803603810190610cc79190614d18565b614044565b604051610ce29a9998979695949392919061581b565b60405180910390f35b610d056004803603810190610d009190615082565b6140b8565b604051610d12919061591d565b60405180910390f35b610d356004803603810190610d309190614d95565b6140e7565b005b610d3f614132565b604051610d4c91906159dc565b60405180910390f35b610d6f6004803603810190610d6a9190615082565b61413c565b604051610d7c919061591d565b60405180910390f35b610d9f6004803603810190610d9a9190615059565b6141a4565b005b610dbb6004803603810190610db69190614d95565b6142ee565b005b610dd76004803603810190610dd29190615082565b614339565b604051610de4919061591d565b60405180910390f35b6060601160008373ffffffffffffffffffffffffffffffffffffffff1673ffffffffffffffffffffffffffffffffffffffff168152602001908152602001600020600701805480602002602001604051908101604052809291908181526020016000905b82821015610efd578382906000526020600020018054610e7090615ded565b80601f0160208091040260200160405190810160405280929190818152602001828054610e9c90615ded565b8015610ee95780601f10610ebe57610100808354040283529160200191610ee9565b820191906000526020600020905b815481529060010190602001808311610ecc57829003601f168201915b505050505081526020019060010190610e51565b505050509050919050565b6060600b60003373ffffffffffffffffffffffffffffffffffffffff1673ffffffffffffffffffffffffffffffffffffffff168152602001908152602001600020805480602002602001604051908101604052809291908181526020018280548015610f9357602002820191906000526020600020905b815481526020019060010190808311610f7f575b5050505050905090565b601360205281600052604060002081805160208101820180518482526020830160208501208183528095505050505050600091509150505481565b6060600760003373ffffffffffffffffffffffffffffffffffffffff1673ffffffffffffffffffffffffffffffffffffffff16815260200190815260200160002080548060200260200160405190810160405280929190818152602001828054801561106357602002820191906000526020600020905b81548152602001906001019080831161104f575b5050505050905090565b60001515600c600083815260200190815260200160002060003373ffffffffffffffffffffffffffffffffffffffff1673ffffffffffffffffffffffffffffffffffffffff16815260200190815260200160002060009054906101000a900460ff16151514156111b4576001600a600083815260200190815260200160002060030160008282546110fe9190615cd9565b925050819055506000600a600083815260200190815260200160002060010160009054906101000a900473ffffffffffffffffffffffffffffffffffffffff169050611149816143a1565b6001600c600084815260200190815260200160002060003373ffffffffffffffffffffffffffffffffffffffff1673ffffffffffffffffffffffffffffffffffffffff16815260200190815260200160002060006101000a81548160ff021916908315150217905550505b50565b600260003373ffffffffffffffffffffffffffffffffffffffff1673ffffffffffffffffffffffffffffffffffffffff16815260200190815260200160002060009054906101000a900460ff166112c4576001339080600181540180825580915050600190039060005260206000200160009091909190916101000a81548173ffffffffffffffffffffffffffffffffffffffff021916908373ffffffffffffffffffffffffffffffffffffffff1602179055506001600260003373ffffffffffffffffffffffffffffffffffffffff1673ffffffffffffffffffffffffffffffffffffffff16815260200190815260200160002060006101000a81548160ff0219169083151502179055505b33601160003373ffffffffffffffffffffffffffffffffffffffff1673ffffffffffffffffffffffffffffffffffffffff16815260200190815260200160002060000160006101000a81548173ffffffffffffffffffffffffffffffffffffffff021916908373ffffffffffffffffffffffffffffffffffffffff16021790555086601160003373ffffffffffffffffffffffffffffffffffffffff1673ffffffffffffffffffffffffffffffffffffffff168152602001908152602001600020600101908051906020019061139b9291906148bd565b5085601160003373ffffffffffffffffffffffffffffffffffffffff1673ffffffffffffffffffffffffffffffffffffffff16815260200190815260200160002060020190805190602001906113f29291906148bd565b5084601160003373ffffffffffffffffffffffffffffffffffffffff1673ffffffffffffffffffffffffffffffffffffffff16815260200190815260200160002060030190805190602001906114499291906148bd565b5083601160003373ffffffffffffffffffffffffffffffffffffffff1673ffffffffffffffffffffffffffffffffffffffff16815260200190815260200160002060040190805190602001906114a09291906148bd565b5082601160003373ffffffffffffffffffffffffffffffffffffffff1673ffffffffffffffffffffffffffffffffffffffff16815260200190815260200160002060050190805190602001906114f79291906148bd565b5081601160003373ffffffffffffffffffffffffffffffffffffffff1673ffffffffffffffffffffffffffffffffffffffff1681526020019081526020016000206006018190555080601160003373ffffffffffffffffffffffffffffffffffffffff1673ffffffffffffffffffffffffffffffffffffffff1681526020019081526020016000206007019080519060200190611595929190614943565b506040518061014001604052803373ffffffffffffffffffffffffffffffffffffffff16815260200160008152602001600081526020016000815260200160008152602001600081526020016000815260200160008152602001600081526020016000815250601260003373ffffffffffffffffffffffffffffffffffffffff1673ffffffffffffffffffffffffffffffffffffffff16815260200190815260200160002060008201518160000160006101000a81548173ffffffffffffffffffffffffffffffffffffffff021916908373ffffffffffffffffffffffffffffffffffffffff1602179055506020820151816001015560408201518160020155606082015181600301556080820151816004015560a0820151816005015560c0820151816006015560e082015181600701556101008201518160080155610120820151816009015590505050505050505050565b6007602052816000526040600020818154811061170557600080fd5b90600052602060002001600091509150505481565b60045481565b60096020528160005260406000206020528060005260406000206000915091509054906101000a900460ff1681565b6060600f60003373ffffffffffffffffffffffffffffffffffffffff1673ffffffffffffffffffffffffffffffffffffffff1681526020019081526020016000208054806020026020016040519081016040528092919081815260200182805480156117da57602002820191906000526020600020905b8154815260200190600101908083116117c6575b5050505050905090565b60035481565b600181815481106117fa57600080fd5b906000526020600020016000915054906101000a900473ffffffffffffffffffffffffffffffffffffffff1681565b6000151560106000600554815260200190815260200160002060003373ffffffffffffffffffffffffffffffffffffffff1673ffffffffffffffffffffffffffffffffffffffff16815260200190815260200160002060009054906101000a900460ff161515141561192f576001600e600083815260200190815260200160002060050160008282546118bc9190615cd9565b92505081905550600160106000600554815260200190815260200160002060003373ffffffffffffffffffffffffffffffffffffffff1673ffffffffffffffffffffffffffffffffffffffff16815260200190815260200160002060006101000a81548160ff0219169083151502179055505b50565b6060601160008373ffffffffffffffffffffffffffffffffffffffff1673ffffffffffffffffffffffffffffffffffffffff168152602001908152602001600020600501805461198190615ded565b80601f01602080910402602001604051908101604052809291908181526020018280546119ad90615ded565b80156119fa5780601f106119cf576101008083540402835291602001916119fa565b820191906000526020600020905b8154815290600101906020018083116119dd57829003601f168201915b50505050509050919050565b6000601260008373ffffffffffffffffffffffffffffffffffffffff1673ffffffffffffffffffffffffffffffffffffffff168152602001908152602001600020600801549050919050565b600d6020528160005260406000206020528060005260406000206000915091509054906101000a900460ff1681565b600e6020528060005260406000206000915090508060000154908060010160009054906101000a900473ffffffffffffffffffffffffffffffffffffffff1690806002018054611ad090615ded565b80601f0160208091040260200160405190810160405280929190818152602001828054611afc90615ded565b8015611b495780601f10611b1e57610100808354040283529160200191611b49565b820191906000526020600020905b815481529060010190602001808311611b2c57829003601f168201915b505050505090806003018054611b5e90615ded565b80601f0160208091040260200160405190810160405280929190818152602001828054611b8a90615ded565b8015611bd75780601f10611bac57610100808354040283529160200191611bd7565b820191906000526020600020905b815481529060010190602001808311611bba57829003601f168201915b505050505090806004018054611bec90615ded565b80601f0160208091040260200160405190810160405280929190818152602001828054611c1890615ded565b8015611c655780601f10611c3a57610100808354040283529160200191611c65565b820191906000526020600020905b815481529060010190602001808311611c4857829003601f168201915b5050505050908060050154908060060154905087565b60006008600084815260200190815260200160002060008373ffffffffffffffffffffffffffffffffffffffff1673ffffffffffffffffffffffffffffffffffffffff16815260200190815260200160002060009054906101000a900460ff16905092915050565b60155481565b6060601160003373ffffffffffffffffffffffffffffffffffffffff1673ffffffffffffffffffffffffffffffffffffffff168152602001908152602001600020600701805480602002602001604051908101604052809291908181526020016000905b82821015611df9578382906000526020600020018054611d6c90615ded565b80601f0160208091040260200160405190810160405280929190818152602001828054611d9890615ded565b8015611de55780601f10611dba57610100808354040283529160200191611de5565b820191906000526020600020905b815481529060010190602001808311611dc857829003601f168201915b505050505081526020019060010190611d4d565b50505050905090565b611e0a6149a3565b601260008373ffffffffffffffffffffffffffffffffffffffff1673ffffffffffffffffffffffffffffffffffffffff168152602001908152602001600020604051806101400160405290816000820160009054906101000a900473ffffffffffffffffffffffffffffffffffffffff1673ffffffffffffffffffffffffffffffffffffffff1673ffffffffffffffffffffffffffffffffffffffff16815260200160018201548152602001600282015481526020016003820154815260200160048201548152602001600582015481526020016006820154815260200160078201548152602001600882015481526020016009820154815250509050919050565b600a6020528060005260406000206000915090508060000154908060010160009054906101000a900473ffffffffffffffffffffffffffffffffffffffff1690806002018054611f5b90615ded565b80601f0160208091040260200160405190810160405280929190818152602001828054611f8790615ded565b8015611fd45780601f10611fa957610100808354040283529160200191611fd4565b820191906000526020600020905b815481529060010190602001808311611fb757829003601f168201915b5050505050908060030154908060040154908060050160009054906101000a900460ff16905086565b6001600460008282546120109190615cd9565b925050819055506040518060c0016040528060045481526020013373ffffffffffffffffffffffffffffffffffffffff168152602001828152602001600081526020016000815260200160001515815250600a600060045481526020019081526020016000206000820151816000015560208201518160010160006101000a81548173ffffffffffffffffffffffffffffffffffffffff021916908373ffffffffffffffffffffffffffffffffffffffff16021790555060408201518160020190805190602001906120e39291906148bd565b50606082015181600301556080820151816004015560a08201518160050160006101000a81548160ff021916908315150217905550905050600b60003373ffffffffffffffffffffffffffffffffffffffff1673ffffffffffffffffffffffffffffffffffffffff16815260200190815260200160002060045490806001815401808255809150506001900390600052602060002001600090919091909150556006600083815260200190815260200160002060060160045490806001815401808255809150506001900390600052602060002001600090919091909150556001601260003373ffffffffffffffffffffffffffffffffffffffff1673ffffffffffffffffffffffffffffffffffffffff16815260200190815260200160002060020160008282546122159190615cd9565b925050819055506005601260003373ffffffffffffffffffffffffffffffffffffffff1673ffffffffffffffffffffffffffffffffffffffff168152602001908152602001600020600401600082825461226f9190615cd9565b925050819055506005601260003373ffffffffffffffffffffffffffffffffffffffff1673ffffffffffffffffffffffffffffffffffffffff16815260200190815260200160002060050160008282546122c99190615cd9565b925050819055506000600c6000600354815260200190815260200160002060003373ffffffffffffffffffffffffffffffffffffffff1673ffffffffffffffffffffffffffffffffffffffff16815260200190815260200160002060006101000a81548160ff0219169083151502179055506000600d6000600354815260200190815260200160002060003373ffffffffffffffffffffffffffffffffffffffff1673ffffffffffffffffffffffffffffffffffffffff16815260200190815260200160002060006101000a81548160ff0219169083151502179055505050565b6060601160008373ffffffffffffffffffffffffffffffffffffffff1673ffffffffffffffffffffffffffffffffffffffff16815260200190815260200160002060040180546123f990615ded565b80601f016020809104026020016040519081016040528092919081815260200182805461242590615ded565b80156124725780601f1061244757610100808354040283529160200191612472565b820191906000526020600020905b81548152906001019060200180831161245557829003601f168201915b50505050509050919050565b60116020528060005260406000206000915090508060000160009054906101000a900473ffffffffffffffffffffffffffffffffffffffff16908060010180546124c790615ded565b80601f01602080910402602001604051908101604052809291908181526020018280546124f390615ded565b80156125405780601f1061251557610100808354040283529160200191612540565b820191906000526020600020905b81548152906001019060200180831161252357829003601f168201915b50505050509080600201805461255590615ded565b80601f016020809104026020016040519081016040528092919081815260200182805461258190615ded565b80156125ce5780601f106125a3576101008083540402835291602001916125ce565b820191906000526020600020905b8154815290600101906020018083116125b157829003601f168201915b5050505050908060030180546125e390615ded565b80601f016020809104026020016040519081016040528092919081815260200182805461260f90615ded565b801561265c5780601f106126315761010080835404028352916020019161265c565b820191906000526020600020905b81548152906001019060200180831161263f57829003601f168201915b50505050509080600401805461267190615ded565b80601f016020809104026020016040519081016040528092919081815260200182805461269d90615ded565b80156126ea5780601f106126bf576101008083540402835291602001916126ea565b820191906000526020600020905b8154815290600101906020018083116126cd57829003601f168201915b5050505050908060050180546126ff90615ded565b80601f016020809104026020016040519081016040528092919081815260200182805461272b90615ded565b80156127785780601f1061274d57610100808354040283529160200191612778565b820191906000526020600020905b81548152906001019060200180831161275b57829003601f168201915b5050505050908060060154905087565b60066020528060005260406000206000915090508060000154908060010160009054906101000a900473ffffffffffffffffffffffffffffffffffffffff16908060020180546127d790615ded565b80601f016020809104026020016040519081016040528092919081815260200182805461280390615ded565b80156128505780601f1061282557610100808354040283529160200191612850565b820191906000526020600020905b81548152906001019060200180831161283357829003601f168201915b50505050509080600301805461286590615ded565b80601f016020809104026020016040519081016040528092919081815260200182805461289190615ded565b80156128de5780601f106128b3576101008083540402835291602001916128de565b820191906000526020600020905b8154815290600101906020018083116128c157829003601f168201915b5050505050908060040154908060050154905086565b8060158190555050565b600015156008600083815260200190815260200160002060003373ffffffffffffffffffffffffffffffffffffffff1673ffffffffffffffffffffffffffffffffffffffff16815260200190815260200160002060009054906101000a900460ff1615151415612a4557600160066000838152602001908152602001600020600401600082825461298f9190615cd9565b9250508190555060006006600083815260200190815260200160002060010160009054906101000a900473ffffffffffffffffffffffffffffffffffffffff1690506129da816143a1565b60016008600084815260200190815260200160002060003373ffffffffffffffffffffffffffffffffffffffff1673ffffffffffffffffffffffffffffffffffffffff16815260200190815260200160002060006101000a81548160ff021916908315150217905550505b50565b60006009600084815260200190815260200160002060008373ffffffffffffffffffffffffffffffffffffffff1673ffffffffffffffffffffffffffffffffffffffff16815260200190815260200160002060009054906101000a900460ff16905092915050565b600f6020528160005260406000208181548110612acc57600080fd5b90600052602060002001600091509150505481565b60008054906101000a900473ffffffffffffffffffffffffffffffffffffffff1681565b6060601160008373ffffffffffffffffffffffffffffffffffffffff1673ffffffffffffffffffffffffffffffffffffffff1681526020019081526020016000206003018054612b5490615ded565b80601f0160208091040260200160405190810160405280929190818152602001828054612b8090615ded565b8015612bcd5780601f10612ba257610100808354040283529160200191612bcd565b820191906000526020600020905b815481529060010190602001808311612bb057829003601f168201915b50505050509050919050565b6000601260008373ffffffffffffffffffffffffffffffffffffffff1673ffffffffffffffffffffffffffffffffffffffff168152602001908152602001600020600701549050919050565b6000601260008373ffffffffffffffffffffffffffffffffffffffff1673ffffffffffffffffffffffffffffffffffffffff168152602001908152602001600020600901549050919050565b600c6020528160005260406000206020528060005260406000206000915091509054906101000a900460ff1681565b600160036000828254612cb39190615cd9565b9250508190555060405180610100016040528060035481526020013373ffffffffffffffffffffffffffffffffffffffff1681526020018481526020018381526020016000815260200160008152602001600067ffffffffffffffff811115612d45577f4e487b7100000000000000000000000000000000000000000000000000000000600052604160045260246000fd5b604051908082528060200260200182016040528015612d735781602001602082028036833780820191505090505b508152602001828152506006600060035481526020019081526020016000206000820151816000015560208201518160010160006101000a81548173ffffffffffffffffffffffffffffffffffffffff021916908373ffffffffffffffffffffffffffffffffffffffff1602179055506040820151816002019080519060200190612dff9291906148bd565b506060820151816003019080519060200190612e1c9291906148bd565b506080820151816004015560a0820151816005015560c0820151816006019080519060200190612e4d929190614a0c565b5060e0820151816007019080519060200190612e6a929190614943565b50905050600760003373ffffffffffffffffffffffffffffffffffffffff1673ffffffffffffffffffffffffffffffffffffffff16815260200190815260200160002060035490806001815401808255809150506001900390600052602060002001600090919091909150556001601260003373ffffffffffffffffffffffffffffffffffffffff1673ffffffffffffffffffffffffffffffffffffffff1681526020019081526020016000206001016000828254612f299190615cd9565b92505081905550600060086000600354815260200190815260200160002060003373ffffffffffffffffffffffffffffffffffffffff1673ffffffffffffffffffffffffffffffffffffffff16815260200190815260200160002060006101000a81548160ff021916908315150217905550600060096000600354815260200190815260200160002060003373ffffffffffffffffffffffffffffffffffffffff1673ffffffffffffffffffffffffffffffffffffffff16815260200190815260200160002060006101000a81548160ff02191690831515021790555061300f81614458565b505050565b60106020528160005260406000206020528060005260406000206000915091509054906101000a900460ff1681565b6000601160008373ffffffffffffffffffffffffffffffffffffffff1673ffffffffffffffffffffffffffffffffffffffff168152602001908152602001600020600601549050919050565b613097614a59565b600a60008381526020019081526020016000206040518060c0016040529081600082015481526020016001820160009054906101000a900473ffffffffffffffffffffffffffffffffffffffff1673ffffffffffffffffffffffffffffffffffffffff1673ffffffffffffffffffffffffffffffffffffffff16815260200160028201805461312590615ded565b80601f016020809104026020016040519081016040528092919081815260200182805461315190615ded565b801561319e5780601f106131735761010080835404028352916020019161319e565b820191906000526020600020905b81548152906001019060200180831161318157829003601f168201915b5050505050815260200160038201548152602001600482015481526020016005820160009054906101000a900460ff1615151515815250509050919050565b6000600a600083815260200190815260200160002060010160009054906101000a900473ffffffffffffffffffffffffffffffffffffffff1690506001600a600084815260200190815260200160002060050160006101000a81548160ff0219169083151502179055506005601260008373ffffffffffffffffffffffffffffffffffffffff1673ffffffffffffffffffffffffffffffffffffffff168152602001908152602001600020600401600082825461329a9190615cd9565b925050819055506005601260003373ffffffffffffffffffffffffffffffffffffffff1673ffffffffffffffffffffffffffffffffffffffff16815260200190815260200160002060050160008282546132f49190615cd9565b925050819055505050565b80601260008473ffffffffffffffffffffffffffffffffffffffff1673ffffffffffffffffffffffffffffffffffffffff168152602001908152602001600020600901819055505050565b600b602052816000526040600020818154811061336657600080fd5b90600052602060002001600091509150505481565b613383614aa7565b600e60008381526020019081526020016000206040518060e0016040529081600082015481526020016001820160009054906101000a900473ffffffffffffffffffffffffffffffffffffffff1673ffffffffffffffffffffffffffffffffffffffff1673ffffffffffffffffffffffffffffffffffffffff16815260200160028201805461341190615ded565b80601f016020809104026020016040519081016040528092919081815260200182805461343d90615ded565b801561348a5780601f1061345f5761010080835404028352916020019161348a565b820191906000526020600020905b81548152906001019060200180831161346d57829003601f168201915b505050505081526020016003820180546134a390615ded565b80601f01602080910402602001604051908101604052809291908181526020018280546134cf90615ded565b801561351c5780601f106134f15761010080835404028352916020019161351c565b820191906000526020600020905b8154815290600101906020018083116134ff57829003601f168201915b5050505050815260200160048201805461353590615ded565b80601f016020809104026020016040519081016040528092919081815260200182805461356190615ded565b80156135ae5780601f10613583576101008083540402835291602001916135ae565b820191906000526020600020905b81548152906001019060200180831161359157829003601f168201915b50505050508152602001600582015481526020016006820154815250509050919050565b6001600560008282546135e59190615cd9565b925050819055506040518060e0016040528060055481526020013373ffffffffffffffffffffffffffffffffffffffff168152602001858152602001848152602001838152602001600081526020016000815250600e600060055481526020019081526020016000206000820151816000015560208201518160010160006101000a81548173ffffffffffffffffffffffffffffffffffffffff021916908373ffffffffffffffffffffffffffffffffffffffff16021790555060408201518160020190805190602001906136bb9291906148bd565b5060608201518160030190805190602001906136d89291906148bd565b5060808201518160040190805190602001906136f59291906148bd565b5060a0820151816005015560c08201518160060155905050600f60003373ffffffffffffffffffffffffffffffffffffffff1673ffffffffffffffffffffffffffffffffffffffff16815260200190815260200160002060055490806001815401808255809150506001900390600052602060002001600090919091909150556001601260003373ffffffffffffffffffffffffffffffffffffffff1673ffffffffffffffffffffffffffffffffffffffff16815260200190815260200160002060030160008282546137c89190615cd9565b92505081905550600060106000600554815260200190815260200160002060003373ffffffffffffffffffffffffffffffffffffffff1673ffffffffffffffffffffffffffffffffffffffff16815260200190815260200160002060006101000a81548160ff02191690831515021790555061384381614458565b50505050565b6000600c600084815260200190815260200160002060008373ffffffffffffffffffffffffffffffffffffffff1673ffffffffffffffffffffffffffffffffffffffff16815260200190815260200160002060009054906101000a900460ff16905092915050565b60055481565b80601260008473ffffffffffffffffffffffffffffffffffffffff1673ffffffffffffffffffffffffffffffffffffffff168152602001908152602001600020600701819055505050565b80600e6000848152602001908152602001600020600601819055505050565b6000600e6000838152602001908152602001600020600601549050919050565b60001515600d600083815260200190815260200160002060003373ffffffffffffffffffffffffffffffffffffffff1673ffffffffffffffffffffffffffffffffffffffff16815260200190815260200160002060009054906101000a900460ff1615151415613a88576001600a600083815260200190815260200160002060040160008282546139d29190615cd9565b925050819055506000600a600083815260200190815260200160002060010160009054906101000a900473ffffffffffffffffffffffffffffffffffffffff169050613a1d81614806565b6001600d600084815260200190815260200160002060003373ffffffffffffffffffffffffffffffffffffffff1673ffffffffffffffffffffffffffffffffffffffff16815260200190815260200160002060006101000a81548160ff021916908315150217905550505b50565b6000601260008373ffffffffffffffffffffffffffffffffffffffff1673ffffffffffffffffffffffffffffffffffffffff168152602001908152602001600020600401549050919050565b6060601160008373ffffffffffffffffffffffffffffffffffffffff1673ffffffffffffffffffffffffffffffffffffffff1681526020019081526020016000206001018054613b2690615ded565b80601f0160208091040260200160405190810160405280929190818152602001828054613b5290615ded565b8015613b9f5780601f10613b7457610100808354040283529160200191613b9f565b820191906000526020600020905b815481529060010190602001808311613b8257829003601f168201915b50505050509050919050565b613bb3614afa565b6006600083815260200190815260200160002060405180610100016040529081600082015481526020016001820160009054906101000a900473ffffffffffffffffffffffffffffffffffffffff1673ffffffffffffffffffffffffffffffffffffffff1673ffffffffffffffffffffffffffffffffffffffff168152602001600282018054613c4290615ded565b80601f0160208091040260200160405190810160405280929190818152602001828054613c6e90615ded565b8015613cbb5780601f10613c9057610100808354040283529160200191613cbb565b820191906000526020600020905b815481529060010190602001808311613c9e57829003601f168201915b50505050508152602001600382018054613cd490615ded565b80601f0160208091040260200160405190810160405280929190818152602001828054613d0090615ded565b8015613d4d5780601f10613d2257610100808354040283529160200191613d4d565b820191906000526020600020905b815481529060010190602001808311613d3057829003601f168201915b50505050508152602001600482015481526020016005820154815260200160068201805480602002602001604051908101604052809291908181526020018280548015613db957602002820191906000526020600020905b815481526020019060010190808311613da5575b5050505050815260200160078201805480602002602001604051908101604052809291908181526020016000905b82821015613e93578382906000526020600020018054613e0690615ded565b80601f0160208091040260200160405190810160405280929190818152602001828054613e3290615ded565b8015613e7f5780601f10613e5457610100808354040283529160200191613e7f565b820191906000526020600020905b815481529060010190602001808311613e6257829003601f168201915b505050505081526020019060010190613de7565b50505050815250509050919050565b60606001805480602002602001604051908101604052809291908181526020018280548015613f2657602002820191906000526020600020905b8160009054906101000a900473ffffffffffffffffffffffffffffffffffffffff1673ffffffffffffffffffffffffffffffffffffffff1681526020019060010190808311613edc575b5050505050905090565b6060601160008373ffffffffffffffffffffffffffffffffffffffff1673ffffffffffffffffffffffffffffffffffffffff1681526020019081526020016000206002018054613f7f90615ded565b80601f0160208091040260200160405190810160405280929190818152602001828054613fab90615ded565b8015613ff85780601f10613fcd57610100808354040283529160200191613ff8565b820191906000526020600020905b815481529060010190602001808311613fdb57829003601f168201915b50505050509050919050565b6000600e600083815260200190815260200160002060010160009054906101000a900473ffffffffffffffffffffffffffffffffffffffff169050919050565b60126020528060005260406000206000915090508060000160009054906101000a900473ffffffffffffffffffffffffffffffffffffffff1690806001015490806002015490806003015490806004015490806005015490806006015490806007015490806008015490806009015490508a565b60086020528160005260406000206020528060005260406000206000915091509054906101000a900460ff1681565b80601260008473ffffffffffffffffffffffffffffffffffffffff1673ffffffffffffffffffffffffffffffffffffffff168152602001908152602001600020600401819055505050565b6000601554905090565b60006010600084815260200190815260200160002060008373ffffffffffffffffffffffffffffffffffffffff1673ffffffffffffffffffffffffffffffffffffffff16815260200190815260200160002060009054906101000a900460ff16905092915050565b600015156009600083815260200190815260200160002060003373ffffffffffffffffffffffffffffffffffffffff1673ffffffffffffffffffffffffffffffffffffffff16815260200190815260200160002060009054906101000a900460ff161515141561423d5760016006600083815260200190815260200160002060050160008282546142359190615cd9565b925050819055505b60006006600083815260200190815260200160002060010160009054906101000a900473ffffffffffffffffffffffffffffffffffffffff16905061428181614806565b60016009600084815260200190815260200160002060003373ffffffffffffffffffffffffffffffffffffffff1673ffffffffffffffffffffffffffffffffffffffff16815260200190815260200160002060006101000a81548160ff0219169083151502179055505050565b80601260008473ffffffffffffffffffffffffffffffffffffffff1673ffffffffffffffffffffffffffffffffffffffff168152602001908152602001600020600801819055505050565b6000600c600084815260200190815260200160002060008373ffffffffffffffffffffffffffffffffffffffff1673ffffffffffffffffffffffffffffffffffffffff16815260200190815260200160002060009054906101000a900460ff16905092915050565b6005601260008373ffffffffffffffffffffffffffffffffffffffff1673ffffffffffffffffffffffffffffffffffffffff16815260200190815260200160002060040160008282546143f49190615cd9565b925050819055506005601260003373ffffffffffffffffffffffffffffffffffffffff1673ffffffffffffffffffffffffffffffffffffffff168152602001908152602001600020600501600082825461444e9190615cd9565b9250508190555050565b6005601260003373ffffffffffffffffffffffffffffffffffffffff1673ffffffffffffffffffffffffffffffffffffffff16815260200190815260200160002060040160008282546144ab9190615cd9565b925050819055506005601260003373ffffffffffffffffffffffffffffffffffffffff1673ffffffffffffffffffffffffffffffffffffffff16815260200190815260200160002060050160008282546145059190615cd9565b9250508190555060005b8151811015614802576005601360003373ffffffffffffffffffffffffffffffffffffffff1673ffffffffffffffffffffffffffffffffffffffff168152602001908152602001600020838381518110614592577f4e487b7100000000000000000000000000000000000000000000000000000000600052603260045260246000fd5b60200260200101516040516145a79190615757565b908152602001604051809103902060008282546145c49190615cd9565b9250508190555060001515601160003373ffffffffffffffffffffffffffffffffffffffff1673ffffffffffffffffffffffffffffffffffffffff16815260200190815260200160002060080183838151811061464a577f4e487b7100000000000000000000000000000000000000000000000000000000600052603260045260246000fd5b602002602001015160405161465f9190615757565b908152602001604051809103902060009054906101000a900460ff16151514156147ef57601160003373ffffffffffffffffffffffffffffffffffffffff1673ffffffffffffffffffffffffffffffffffffffff1681526020019081526020016000206007018282815181106146fe577f4e487b7100000000000000000000000000000000000000000000000000000000600052603260045260246000fd5b602002602001015190806001815401808255809150506001900390600052602060002001600090919091909150908051906020019061473e9291906148bd565b5060011515601160003373ffffffffffffffffffffffffffffffffffffffff1673ffffffffffffffffffffffffffffffffffffffff1681526020019081526020016000206008018383815181106147be577f4e487b7100000000000000000000000000000000000000000000000000000000600052603260045260246000fd5b60200260200101516040516147d39190615757565b908152602001604051809103902060009054906101000a905050505b80806147fa90615e50565b91505061450f565b5050565b6005601260008373ffffffffffffffffffffffffffffffffffffffff1673ffffffffffffffffffffffffffffffffffffffff16815260200190815260200160002060040160008282546148599190615d2f565b925050819055506005601260003373ffffffffffffffffffffffffffffffffffffffff1673ffffffffffffffffffffffffffffffffffffffff16815260200190815260200160002060050160008282546148b39190615d2f565b9250508190555050565b8280546148c990615ded565b90600052602060002090601f0160209004810192826148eb5760008555614932565b82601f1061490457805160ff1916838001178555614932565b82800160010185558215614932579182015b82811115614931578251825591602001919060010190614916565b5b50905061493f9190614b55565b5090565b828054828255906000526020600020908101928215614992579160200282015b828111156149915782518290805190602001906149819291906148bd565b5091602001919060010190614963565b5b50905061499f9190614b72565b5090565b604051806101400160405280600073ffffffffffffffffffffffffffffffffffffffff1681526020016000815260200160008152602001600081526020016000815260200160008152602001600081526020016000815260200160008152602001600081525090565b828054828255906000526020600020908101928215614a48579160200282015b82811115614a47578251825591602001919060010190614a2c565b5b509050614a559190614b55565b5090565b6040518060c0016040528060008152602001600073ffffffffffffffffffffffffffffffffffffffff1681526020016060815260200160008152602001600081526020016000151581525090565b6040518060e0016040528060008152602001600073ffffffffffffffffffffffffffffffffffffffff16815260200160608152602001606081526020016060815260200160008152602001600081525090565b60405180610100016040528060008152602001600073ffffffffffffffffffffffffffffffffffffffff1681526020016060815260200160608152602001600081526020016000815260200160608152602001606081525090565b5b80821115614b6e576000816000905550600101614b56565b5090565b5b80821115614b925760008181614b899190614b96565b50600101614b73565b5090565b508054614ba290615ded565b6000825580601f10614bb45750614bd3565b601f016020900490600052602060002090810190614bd29190614b55565b5b50565b6000614be9614be484615b77565b615b52565b90508083825260208201905082856020860282011115614c0857600080fd5b60005b85811015614c5257813567ffffffffffffffff811115614c2a57600080fd5b808601614c378982614cd9565b85526020850194506020840193505050600181019050614c0b565b5050509392505050565b6000614c6f614c6a84615ba3565b615b52565b905082815260208101848484011115614c8757600080fd5b614c92848285615dab565b509392505050565b600081359050614ca981615f37565b92915050565b600082601f830112614cc057600080fd5b8135614cd0848260208601614bd6565b91505092915050565b600082601f830112614cea57600080fd5b8135614cfa848260208601614c5c565b91505092915050565b600081359050614d1281615f4e565b92915050565b600060208284031215614d2a57600080fd5b6000614d3884828501614c9a565b91505092915050565b60008060408385031215614d5457600080fd5b6000614d6285828601614c9a565b925050602083013567ffffffffffffffff811115614d7f57600080fd5b614d8b85828601614cd9565b9150509250929050565b60008060408385031215614da857600080fd5b6000614db685828601614c9a565b9250506020614dc785828601614d03565b9150509250929050565b600080600060608486031215614de657600080fd5b600084013567ffffffffffffffff811115614e0057600080fd5b614e0c86828701614cd9565b935050602084013567ffffffffffffffff811115614e2957600080fd5b614e3586828701614cd9565b925050604084013567ffffffffffffffff811115614e5257600080fd5b614e5e86828701614caf565b9150509250925092565b60008060008060808587031215614e7e57600080fd5b600085013567ffffffffffffffff811115614e9857600080fd5b614ea487828801614cd9565b945050602085013567ffffffffffffffff811115614ec157600080fd5b614ecd87828801614cd9565b935050604085013567ffffffffffffffff811115614eea57600080fd5b614ef687828801614cd9565b925050606085013567ffffffffffffffff811115614f1357600080fd5b614f1f87828801614caf565b91505092959194509250565b600080600080600080600060e0888a031215614f4657600080fd5b600088013567ffffffffffffffff811115614f6057600080fd5b614f6c8a828b01614cd9565b975050602088013567ffffffffffffffff811115614f8957600080fd5b614f958a828b01614cd9565b965050604088013567ffffffffffffffff811115614fb257600080fd5b614fbe8a828b01614cd9565b955050606088013567ffffffffffffffff811115614fdb57600080fd5b614fe78a828b01614cd9565b945050608088013567ffffffffffffffff81111561500457600080fd5b6150108a828b01614cd9565b93505060a06150218a828b01614d03565b92505060c088013567ffffffffffffffff81111561503e57600080fd5b61504a8a828b01614caf565b91505092959891949750929550565b60006020828403121561506b57600080fd5b600061507984828501614d03565b91505092915050565b6000806040838503121561509557600080fd5b60006150a385828601614d03565b92505060206150b485828601614c9a565b9150509250929050565b600080604083850312156150d157600080fd5b60006150df85828601614d03565b925050602083013567ffffffffffffffff8111156150fc57600080fd5b61510885828601614cd9565b9150509250929050565b6000806040838503121561512557600080fd5b600061513385828601614d03565b925050602061514485828601614d03565b9150509250929050565b600061515a8383615192565b60208301905092915050565b600061517283836153d2565b905092915050565b60006151868383615739565b60208301905092915050565b61519b81615d63565b82525050565b6151aa81615d63565b82525050565b60006151bb82615c04565b6151c58185615c57565b93506151d083615bd4565b8060005b838110156152015781516151e8888261514e565b97506151f383615c30565b9250506001810190506151d4565b5085935050505092915050565b600061521982615c0f565b6152238185615c68565b93508360208202850161523585615be4565b8060005b8581101561527157848403895281516152528582615166565b945061525d83615c3d565b925060208a01995050600181019050615239565b50829750879550505050505092915050565b600061528e82615c0f565b6152988185615c79565b9350836020820285016152aa85615be4565b8060005b858110156152e657848403895281516152c78582615166565b94506152d283615c3d565b925060208a019950506001810190506152ae565b50829750879550505050505092915050565b600061530382615c1a565b61530d8185615c8a565b935061531883615bf4565b8060005b83811015615349578151615330888261517a565b975061533b83615c4a565b92505060018101905061531c565b5085935050505092915050565b600061536182615c1a565b61536b8185615c9b565b935061537683615bf4565b8060005b838110156153a757815161538e888261517a565b975061539983615c4a565b92505060018101905061537a565b5085935050505092915050565b6153bd81615d75565b82525050565b6153cc81615d75565b82525050565b60006153dd82615c25565b6153e78185615cac565b93506153f7818560208601615dba565b61540081615f26565b840191505092915050565b600061541682615c25565b6154208185615cbd565b9350615430818560208601615dba565b61543981615f26565b840191505092915050565b600061544f82615c25565b6154598185615cce565b9350615469818560208601615dba565b80840191505092915050565b600060c08301600083015161548d6000860182615739565b5060208301516154a06020860182615192565b50604083015184820360408601526154b882826153d2565b91505060608301516154cd6060860182615739565b5060808301516154e06080860182615739565b5060a08301516154f360a08601826153b4565b508091505092915050565b600060e0830160008301516155166000860182615739565b5060208301516155296020860182615192565b506040830151848203604086015261554182826153d2565b9150506060830151848203606086015261555b82826153d2565b9150506080830151848203608086015261557582826153d2565b91505060a083015161558a60a0860182615739565b5060c083015161559d60c0860182615739565b508091505092915050565b6000610100830160008301516155c16000860182615739565b5060208301516155d46020860182615192565b50604083015184820360408601526155ec82826153d2565b9150506060830151848203606086015261560682826153d2565b915050608083015161561b6080860182615739565b5060a083015161562e60a0860182615739565b5060c083015184820360c086015261564682826152f8565b91505060e083015184820360e0860152615660828261520e565b9150508091505092915050565b610140820160008201516156846000850182615192565b5060208201516156976020850182615739565b5060408201516156aa6040850182615739565b5060608201516156bd6060850182615739565b5060808201516156d06080850182615739565b5060a08201516156e360a0850182615739565b5060c08201516156f660c0850182615739565b5060e082015161570960e0850182615739565b5061010082015161571e610100850182615739565b50610120820151615733610120850182615739565b50505050565b61574281615da1565b82525050565b61575181615da1565b82525050565b60006157638284615444565b915081905092915050565b600060208201905061578360008301846151a1565b92915050565b600060e08201905061579e600083018a6151a1565b81810360208301526157b0818961540b565b905081810360408301526157c4818861540b565b905081810360608301526157d8818761540b565b905081810360808301526157ec818661540b565b905081810360a0830152615800818561540b565b905061580f60c0830184615748565b98975050505050505050565b600061014082019050615831600083018d6151a1565b61583e602083018c615748565b61584b604083018b615748565b615858606083018a615748565b6158656080830189615748565b61587260a0830188615748565b61587f60c0830187615748565b61588c60e0830186615748565b61589a610100830185615748565b6158a8610120830184615748565b9b9a5050505050505050505050565b600060208201905081810360008301526158d181846151b0565b905092915050565b600060208201905081810360008301526158f38184615283565b905092915050565b600060208201905081810360008301526159158184615356565b905092915050565b600060208201905061593260008301846153c3565b92915050565b60006020820190508181036000830152615952818461540b565b905092915050565b600060208201905081810360008301526159748184615475565b905092915050565b6000602082019050818103600083015261599681846154fe565b905092915050565b600060208201905081810360008301526159b881846155a8565b905092915050565b6000610140820190506159d6600083018461566d565b92915050565b60006020820190506159f16000830184615748565b92915050565b600060e082019050615a0c600083018a615748565b615a1960208301896151a1565b8181036040830152615a2b818861540b565b90508181036060830152615a3f818761540b565b90508181036080830152615a53818661540b565b9050615a6260a0830185615748565b615a6f60c0830184615748565b98975050505050505050565b600060c082019050615a906000830189615748565b615a9d60208301886151a1565b8181036040830152615aaf818761540b565b90508181036060830152615ac3818661540b565b9050615ad26080830185615748565b615adf60a0830184615748565b979650505050505050565b600060c082019050615aff6000830189615748565b615b0c60208301886151a1565b8181036040830152615b1e818761540b565b9050615b2d6060830186615748565b615b3a6080830185615748565b615b4760a08301846153c3565b979650505050505050565b6000615b5c615b6d565b9050615b688282615e1f565b919050565b6000604051905090565b600067ffffffffffffffff821115615b9257615b91615ef7565b5b602082029050602081019050919050565b600067ffffffffffffffff821115615bbe57615bbd615ef7565b5b615bc782615f26565b9050602081019050919050565b6000819050602082019050919050565b6000819050602082019050919050565b6000819050602082019050919050565b600081519050919050565b600081519050919050565b600081519050919050565b600081519050919050565b6000602082019050919050565b6000602082019050919050565b6000602082019050919050565b600082825260208201905092915050565b600082825260208201905092915050565b600082825260208201905092915050565b600082825260208201905092915050565b600082825260208201905092915050565b600082825260208201905092915050565b600082825260208201905092915050565b600081905092915050565b6000615ce482615da1565b9150615cef83615da1565b9250827fffffffffffffffffffffffffffffffffffffffffffffffffffffffffffffffff03821115615d2457615d23615e99565b5b828201905092915050565b6000615d3a82615da1565b9150615d4583615da1565b925082821015615d5857615d57615e99565b5b828203905092915050565b6000615d6e82615d81565b9050919050565b60008115159050919050565b600073ffffffffffffffffffffffffffffffffffffffff82169050919050565b6000819050919050565b82818337600083830152505050565b60005b83811015615dd8578082015181840152602081019050615dbd565b83811115615de7576000848401525b50505050565b60006002820490506001821680615e0557607f821691505b60208210811415615e1957615e18615ec8565b5b50919050565b615e2882615f26565b810181811067ffffffffffffffff82111715615e4757615e46615ef7565b5b80604052505050565b6000615e5b82615da1565b91507fffffffffffffffffffffffffffffffffffffffffffffffffffffffffffffffff821415615e8e57615e8d615e99565b5b600182019050919050565b7f4e487b7100000000000000000000000000000000000000000000000000000000600052601160045260246000fd5b7f4e487b7100000000000000000000000000000000000000000000000000000000600052602260045260246000fd5b7f4e487b7100000000000000000000000000000000000000000000000000000000600052604160045260246000fd5b6000601f19601f8301169050919050565b615f4081615d63565b8114615f4b57600080fd5b50565b615f5781615da1565b8114615f6257600080fd5b5056fea264697066735822122045a5e744cce93ed1388ce52bd939b50b6b32782110c79e9030071066378ea40664736f6c63430008040033",
  "linkReferences": {},
  "deployedLinkReferences": {}
}